602AZ001008B811000062058001   0APACHE                  ARIZ  090214120A001A35MIN29MIN20FA45 000000
602AZ002008B811000053152002   0COCHISE                 ARIZ  030809110A001A19MWH36MWN12ST99 000000
602AZ002008B811000053152002   0COCHISE                 ARIZ  080106120A001B22MWN00UUU20UN99 000000
602AZ002008B811000053152002   0COCHISE                 ARIZ  120402120A001A30MWU36MWU90ST26 000000
602AZ002055 811000017624002   0DOUGLAS                 ARIZ  040214120A001A39FWH42MWH12WI99 000000
602AZ002094 811000044509002   0SIERRA VISTA            ARIZ  010728110A001A22MWN59MWN12ST05 000000
602AZ002094 811000044509002   0SIERRA VISTA            ARIZ  070319120A001A76MWN17MWH20AQ99 000000
602AZ003009B8110000548910032751COCONINO                ARIZ  060214120A001B99UUN00UUU12UN99 000000
602AZ003009B8110000548910032751COCONINO                ARIZ  070214120A001D43FWN38MWH12UN99 00100045MWN
602AZ003009B8110000548910032751COCONINO                ARIZ  070214120A002A00UUU44MWN90UN99 000000
602AZ003009B8110000548910032751COCONINO                ARIZ  100319120A001B56MWN00UUU12UN99 000000
602AZ004008B811000028307004   0GILA                    ARIZ  031003110A001B50MWH00UUU13UN03 000000
602AZ007009A8110003653620076621MARICOPA                ARIZ  010809111A001A80FWN78MWN13WI99 000000
602AZ007009A8110003653620076621MARICOPA                ARIZ  010809111A002B23MWH00UUU11UN99 000000
602AZ007009A8110003653620076621MARICOPA                ARIZ  010809111B003C02FWN22FAN90DA59 000001                                                  50MWN90DA59
602AZ007009A8110003653620076621MARICOPA                ARIZ  020728110A001B49MWN00UUU12UN99 000000
602AZ007009A8110003653620076621MARICOPA                ARIZ  030809110B001A46MWN50FWN12BF53 000000
602AZ007009A8110003653620076621MARICOPA                ARIZ  040906110A001C52MWN59FWN90IL26 000001                                                  59MWN90BR26
602AZ007009A8110003653620076621MARICOPA                ARIZ  040906110B002A54MBN50MBN12FR53 000000
602AZ007009A8110003653620076621MARICOPA                ARIZ  071220110A001C29MBN20MWH65UN09 000001                                                  25MBN65UN09
602AZ007009A8110003653620076621MARICOPA                ARIZ  100319120A001C27MWH38MWN20FR26 000001                                                  40MWN20FR26
602AZ007013 8110000773170076620AVONDALE                ARIZ  040906110A001F24MWH00UUU12UN46 00100029MWH
602AZ007013 8110000773170076620AVONDALE                ARIZ  061027110A001A48MWN27FWN12HU45 000000
602AZ007013 8110000773170076620AVONDALE                ARIZ  071220110A001A25MBN24MWN12AQ40 000000
602AZ007013 8110000773170076620AVONDALE                ARIZ  080106120A001A57MWN45MWN90ST45 000000
602AZ007013 8110000773170076620AVONDALE                ARIZ  100319120A001A20MIN27MWN12ST99 000000
602AZ007052 8110002394660076620CHANDLER                ARIZ  020728110A001A19MBN18MBN12ST45 000000
602AZ007052 8110002394660076620CHANDLER                ARIZ  060214121A001A33FAN41MWN90GF99 000000
602AZ007052 8110002394660076620CHANDLER                ARIZ  100319120B001A18FWN19MWN13GF53 000000
602AZ007074 8110000322470076621EL MIRAGE               ARIZ  020728110A001B45MWN00UUU12UN99 000000
602AZ007074 8110000322470076621EL MIRAGE               ARIZ  101130121A001A02MW 21MW 40AQ41 000000
602AZ007112 8110002114040076620GILBERT                 ARIZ  040116130A001A56MW 23MW 12ST45 000000
602AZ007112 8110002114040076620GILBERT                 ARIZ  100116130A001A02MW 25MW 40SO99 000000
602AZ007132 8110002299310076620GLENDALE                ARIZ  020728110A001B33MWH00UUU12UN99 000000
602AZ007132 8110002299310076620GLENDALE                ARIZ  031003110A001D55MWN30MWN12FA99 00100054FWN
602AZ007132 8110002299310076620GLENDALE                ARIZ  031003110A002C16FWH18MWH90ST03 000001                                                  18MWH90ST03
602AZ007132 8110002299310076620GLENDALE                ARIZ  040906110A001A18MBN20MWN20ST99 000000
602AZ007132 8110002299310076620GLENDALE                ARIZ  050725121A001A28MWH31MWN12ST81A000000
602AZ007132 8110002299310076620GLENDALE                ARIZ  070105121A001E23MW 22MW 12FR45 00100135MW                                              24MW 12ST45
602AZ007132 8110002299310076620GLENDALE                ARIZ  071220110A002A25MWN00MWN12UN46 000000
602AZ007132 8110002299310076620GLENDALE                ARIZ  080106120A001B35MWH00UUU20UN46 000000
602AZ007132 8110002299310076620GLENDALE                ARIZ  080106120A002A28MWN21MWH14AQ18 000000
602AZ007132 8110002299310076620GLENDALE                ARIZ  090214120A001A19MBN21MBN13ST03 000000
602AZ007132 8110002299310076620GLENDALE                ARIZ  090214120A002A39MBN28MBN12AQ40 000000
602AZ007132 8110002299310076620GLENDALE                ARIZ  090214120A003A60FAN61MAN20WI60 000000
602AZ007132 8110002299310076620GLENDALE                ARIZ  100319120A001A21MWH19MWH12AQ45 000000
602AZ007132 8110002299310076620GLENDALE                ARIZ  101005121A002A26MW 20MW 12ST26 000000
602AZ007132 8110002299310076620GLENDALE                ARIZ  100319120A003B29MWH00UUU12UN45 000000
602AZ007132 8110002299310076620GLENDALE                ARIZ  110326120A001A38FWH38MWH13WI60 000000
602AZ007132 8110002299310076620GLENDALE                ARIZ  110326120A002B27MBN00UUU12UN18 000000
602AZ007132 8110002299310076620GLENDALE                ARIZ  110326120A003A21MBN14MWH20AQ45 000000
602AZ007132 8110002299310076620GLENDALE                ARIZ  120725121A001A34MWN31MWN13AQ44 000000
602AZ007132 8110002299310076620GLENDALE                ARIZ  120725121A002B29MWH00UUU12UN99 000000
602AZ007132 8110002299310076620GLENDALE                ARIZ  120725121A003A10FWH22MWH85SD41 000000
602AZ007171C8110004452560076620MESA                    ARIZ  010629110A001A21MBN00MBU20AQ44 000000
602AZ007171C8110004452560076620MESA                    ARIZ  030809110A001A29MBN22MIN90UN45 000000
602AZ007171C8110004452560076620MESA                    ARIZ  051003110A001A04FWH21MWH40DA26 000000
602AZ007171C8110004452560076620MESA                    ARIZ  061027110A001D18MWN21MWH15ST44 00100019MWN
602AZ007171C8110004452560076620MESA                    ARIZ  071106121A001A32MW 57MW 12ST80C000000
602AZ007171C8110004452560076620MESA                    ARIZ  070214121A002A28MWN35MWN20AQ99 000000
602AZ007171C8110004452560076620MESA                    ARIZ  070214121A003A39FWN35MWN40GF45 000000
602AZ007171C8110004452560076620MESA                    ARIZ  070214121A004A25MWN00MWH12ST03 000000
602AZ007171C8110004452560076620MESA                    ARIZ  070214120B005A30MWN32MWN12AQ53 000000
602AZ007171C8110004452560076620MESA                    ARIZ  080106120A001A30MWN27MWN20UN03 000000
602AZ007171C8110004452560076620MESA                    ARIZ  080106120A002C30MWN38MBN12ST81E000001                                                  47MWN12ST81E
602AZ007171C8110004452560076620MESA                    ARIZ  080106120A003A42FWN16MWN12AQ45 000000
602AZ007171C8110004452560076620MESA                    ARIZ  080106120A004C38MWN48MWN12ST81A000002                                                  41MWN12ST81A54MWH12ST81A
602AZ007171C8110004452560076620MESA                    ARIZ  080106120A005A30MWN24MWN12FR45 000000
602AZ007171C8110004452560076620MESA                    ARIZ  100319120A001C01MWH00MWH12UN70 000001                                                  00MWH12UN70
602AZ007171C8110004452560076620MESA                    ARIZ  100319120A002A48MWN50MWN20NE45 000000
602AZ007171C8110004452560076620MESA                    ARIZ  100319120A003C29FWN25MWH11UN99 000002                                                  23MWU11UN99 28MWH11UN99
602AZ007171C8110004452560076620MESA                    ARIZ  100319120A004C26MWH26MWH20AQ45 000001                                                  22MWH20AQ45
602AZ007171C8110004452560076620MESA                    ARIZ  110326120A001A61FWN41MWN30OF45 000000
602AZ007171C8110004452560076620MESA                    ARIZ  120402120A001A50MWN52FWN12BF45 000000
602AZ007212 8110001562460076620PEORIA                  ARIZ  030809110A001A23MBN21MWH40AQ03 000000
602AZ007212 8110001562460076620PEORIA                  ARIZ  110402120A001A21MWN20MWN40FR26 000000
602AZ007231A8110014660970076620PHOENIX                 ARIZ  010810111A001B23MW 00UU 11UN99 000000
602AZ007231A8110014660970076620PHOENIX                 ARIZ  010809111A002A56FBN68MBN30WI40 000000
602AZ007231A8110014660970076620PHOENIX                 ARIZ  010809111A003A62FWN44FWN80OF99 000000
602AZ007231A8110014660970076620PHOENIX                 ARIZ  010809111A004B45FWN00UUU30UN99 000000
602AZ007231A8110014660970076620PHOENIX                 ARIZ  010809111A005B33MWN00UUU11UN99 000000
602AZ007231A8110014660970076620PHOENIX                 ARIZ  010809111A006F29MWH00UUU11UN99 00100038MWH
602AZ007231A8110014660970076620PHOENIX                 ARIZ  010809111A007B32MWH00UUU11UN99 000000
602AZ007231A8110014660970076620PHOENIX                 ARIZ  010809111A008ABBMWN21MBN90OF41 000000
602AZ007231A8110014660970076620PHOENIX                 ARIZ  010809111A009B26MBN00UUU11UN99 000000
602AZ007231A8110014660970076620PHOENIX                 ARIZ  010809111A010A49FWN42MAN90ST99 000000
602AZ007231A8110014660970076620PHOENIX                 ARIZ  010809110B011A20MWH18MWH11AQ53 000000
602AZ007231A8110014660970076620PHOENIX                 ARIZ  020728110A001A90MWU21MWH30UN03 000000
602AZ007231A8110014660970076620PHOENIX                 ARIZ  020728110A002A41FWU16MWU80OF45 000000
602AZ007231A8110014660970076620PHOENIX                 ARIZ  020728110A003A62FWU53MWU20AQ99 000000
602AZ007231A8110014660970076620PHOENIX                 ARIZ  020728110A004A27MBU26MBU12AQ99 000000
602AZ007231A8110014660970076620PHOENIX                 ARIZ  020728110A005A24MIU26MWH12ST99 000000
602AZ007231A8110014660970076620PHOENIX                 ARIZ  020728110A006B25MWH00UUU11UN99 000000
602AZ007231A8110014660970076620PHOENIX                 ARIZ  020728110A007B18MWH00UUU11UN45 000000
602AZ007231A8110014660970076620PHOENIX                 ARIZ  020728110A008A22FWH00MWH11ST99 000000
602AZ007231A8110014660970076620PHOENIX                 ARIZ  031220111A001A39MBN00MWH12ST99 000000
602AZ007231A8110014660970076620PHOENIX                 ARIZ  031220111A002BBBFBN00UUU30UN99 000000
602AZ007231A8110014660970076620PHOENIX                 ARIZ  031220111A003A20MWH37MWN12ST81B000000
602AZ007231A8110014660970076620PHOENIX                 ARIZ  031220111A004A25MWH00MWH12ST03 000000
602AZ007231A8110014660970076620PHOENIX                 ARIZ  031220111A005A34MWH26MWH12ST99 000000
602AZ007231A8110014660970076620PHOENIX                 ARIZ  031220111A006C26MWH28MWN12ST81B000001                                                  37MWN12ST81B
602AZ007231A8110014660970076620PHOENIX                 ARIZ  031220111A007CBBFWH37MWH30OF99 000002                                                  33MWH30OF99 44FWH30OF99
602AZ007231A8110014660970076620PHOENIX                 ARIZ  031220111A008A49FBN18MBN12AQ45 000000
602AZ007231A8110014660970076620PHOENIX                 ARIZ  031220111A009A51FBN41MBN30WI99 000000
602AZ007231A8110014660970076620PHOENIX                 ARIZ  031220111A010A28MAN21MAN12AQ45 000000
602AZ007231A8110014660970076620PHOENIX                 ARIZ  031220111B011A54FWN54MWN12WI51 000000
602AZ007231A8110014660970076620PHOENIX                 ARIZ  041027111A001A32MBN28MBN12AQ99 000000
602AZ007231A8110014660970076620PHOENIX                 ARIZ  041027111A002A20MWN21MWN15AQ18 000000
602AZ007231A8110014660970076620PHOENIX                 ARIZ  041027111A003B45MBN00UUU12UN99 000000
602AZ007231A8110014660970076620PHOENIX                 ARIZ  041027111A004C21MWN00MUU11UN99 000001                                                  00MUU11UN99
602AZ007231A8110014660970076620PHOENIX                 ARIZ  041027111A005B45MWN00UUU11UN99 000000
602AZ007231A8110014660970076620PHOENIX                 ARIZ  041027111A006A22FWH21MWH12AQ45 000000
602AZ007231A8110014660970076620PHOENIX                 ARIZ  041027111A007B59MBN00UUU90UN45 000000
602AZ007231A8110014660970076620PHOENIX                 ARIZ  041027111A008A33MBN32MWH11UN99 000000
602AZ007231A8110014660970076620PHOENIX                 ARIZ  041027111A009B29MBN00UUU12UN03 000000
602AZ007231A8110014660970076620PHOENIX                 ARIZ  041027111A010A30MWN31MWN12AQ99 000000
602AZ007231A8110014660970076620PHOENIX                 ARIZ  041102111A011C49MW 26MW 12ST81A000002                                                  25MW 12ST81A41MW 12ST81A
602AZ007231A8110014660970076620PHOENIX                 ARIZ  041102111A012A48MW 34MW 12ST81A000000
602AZ007231A8110014660970076620PHOENIX                 ARIZ  041102111A013C40MW 26FW 13ST81A000004                                                  26MW 13ST81A59MW 13ST81A29MW 13ST81A34MW 13ST81A
602AZ007231A8110014660970076620PHOENIX                 ARIZ  051220111A001A37MWN27MWH12UN99 000000
602AZ007231A8110014660970076620PHOENIX                 ARIZ  051220111A002A69MWN00MWN30UN99 000000
602AZ007231A8110014660970076620PHOENIX                 ARIZ  051220111A003A60FWN86MWN12FR99 000000
602AZ007231A8110014660970076620PHOENIX                 ARIZ  051220111A004C30MWH27FWH14ST03 000001                                                  32MWH14ST03
602AZ007231A8110014660970076620PHOENIX                 ARIZ  051220111A005B18MBN00UUU13UN46 000000
602AZ007231A8110014660970076620PHOENIX                 ARIZ  051220111A006A40MWH32MIN20FR99 000000
602AZ007231A8110014660970076620PHOENIX                 ARIZ  051220111A007C19MWN18FBN90ST99 000001                                                  24MBN20ST99
602AZ007231A8110014660970076620PHOENIX                 ARIZ  051220111A008B00MWH00UUU12UN99 000000
602AZ007231A8110014660970076620PHOENIX                 ARIZ  051220111A009A17MWH15MWH12FR99 000000
602AZ007231A8110014660970076620PHOENIX                 ARIZ  051220111A010A21MWH00MWH12UN45 000000
602AZ007231A8110014660970076620PHOENIX                 ARIZ  051220111A011A52FWN51MWN30WI99 000000
602AZ007231A8110014660970076620PHOENIX                 ARIZ  051220111A012B43MWH00UUU30UN99 000000
602AZ007231A8110014660970076620PHOENIX                 ARIZ  051220111A013A46FWN38MBN30GF99 000000
602AZ007231A8110014660970076620PHOENIX                 ARIZ  051220111A014B19MBN00UUU20UN99 000000
602AZ007231A8110014660970076620PHOENIX                 ARIZ  051220111A015A28MWN26MWN80FR45 000000
602AZ007231A8110014660970076620PHOENIX                 ARIZ  051220111A016B43MWH00UUU30UN99 000000
602AZ007231A8110014660970076620PHOENIX                 ARIZ  051220111A017A27MWH35MWH12ST81C000000
602AZ007231A8110014660970076620PHOENIX                 ARIZ  051220111A018C31MWN41MWH13ST81A000001                                                  40MAN13ST81A
602AZ007231A8110014660970076620PHOENIX                 ARIZ  060214121A001A37FWN51MWN12CW99 000000
602AZ007231A8110014660970076620PHOENIX                 ARIZ  060214121A002B24MWH00UUU11UN99 000000
602AZ007231A8110014660970076620PHOENIX                 ARIZ  060214121A003A28MWN26MWN12AQ45 000000
602AZ007231A8110014660970076620PHOENIX                 ARIZ  060214121A004A21MWH18MWH12FR99 000000
602AZ007231A8110014660970076620PHOENIX                 ARIZ  060214121A005B19MWH00UUU14UN99 000000
602AZ007231A8110014660970076620PHOENIX                 ARIZ  060214121A006A45MIN49MWH20AQ45 000000
602AZ007231A8110014660970076620PHOENIX                 ARIZ  060214121A007A18MWN26MWN12OF45 000000
602AZ007231A8110014660970076620PHOENIX                 ARIZ  060214121A008C30MIN25MWN20AQ03 000001                                                  25MBN20UN03
602AZ007231A8110014660970076620PHOENIX                 ARIZ  060214121A009B36MBN00UUU11UN99 000000
602AZ007231A8110014660970076620PHOENIX                 ARIZ  060214121A010A57MWN00MBN30UN99 000000
602AZ007231A8110014660970076620PHOENIX                 ARIZ  060214121A011A39MBN30MWN12UN45 000000
602AZ007231A8110014660970076620PHOENIX                 ARIZ  060214121A012A30FBN18MBN30OK99 000000
602AZ007231A8110014660970076620PHOENIX                 ARIZ  060214121A013A38MBN30MWH12ST80E000000
602AZ007231A8110014660970076620PHOENIX                 ARIZ  060214121B014CBBFWH33FWN85DA59 000001                                                  32MWH85DA59
602AZ007231A8110014660970076620PHOENIX                 ARIZ  070726121A001A31MWN31MWN12FR99 000000
602AZ007231A8110014660970076620PHOENIX                 ARIZ  070726121A002C36MWH26MWH12ST18 000001                                                  35MWH12ST18
602AZ007231A8110014660970076620PHOENIX                 ARIZ  070726121A003C10FWN22MWN85OF99 000001                                                  23FWN85OF99
602AZ007231A8110014660970076620PHOENIX                 ARIZ  070726121A004A37MBN00MBN12UN18 000000
602AZ007231A8110014660970076620PHOENIX                 ARIZ  070726121A005A19MWN18MBN11FR45 000000
602AZ007231A8110014660970076620PHOENIX                 ARIZ  070726121A006C78MWN17MWN12ST03 000001                                                  17MWN12ST03
602AZ007231A8110014660970076620PHOENIX                 ARIZ  070726121A007C46MWH00MWH11ST99 000001                                                  00MWH11ST99
602AZ007231A8110014660970076620PHOENIX                 ARIZ  071106121A008A41MW 41FW 20HU45 000000
602AZ007231A8110014660970076620PHOENIX                 ARIZ  070726121A009B26MWH00UUU12UN99 000000
602AZ007231A8110014660970076620PHOENIX                 ARIZ  070726121A010A21FWH24MWN12UN80C000000
602AZ007231A8110014660970076620PHOENIX                 ARIZ  080106120A001A24MWH22MWH12AQ45 000000
602AZ007231A8110014660970076620PHOENIX                 ARIZ  080106120A002A31MWH30MWH12AQ45 000000
602AZ007231A8110014660970076620PHOENIX                 ARIZ  080106120A003B38MWH00UUU30UN99 000000
602AZ007231A8110014660970076620PHOENIX                 ARIZ  080106120A004ABBFIN25MIN90OF99 000000
602AZ007231A8110014660970076620PHOENIX                 ARIZ  080106120A005C64MWN57MWN12FR99 000001                                                  56MWN12FR99
602AZ007231A8110014660970076620PHOENIX                 ARIZ  080106120A006B47FIN00UUU11UN99 000000
602AZ007231A8110014660970076620PHOENIX                 ARIZ  080106120A007A24FWH25MWH12WI99 000000
602AZ007231A8110014660970076620PHOENIX                 ARIZ  080106120A008A28FWH23MWH12WI45 000000
602AZ007231A8110014660970076620PHOENIX                 ARIZ  080106120A009F20MBN00UUU12UN45 00200026MBN35FBN
602AZ007231A8110014660970076620PHOENIX                 ARIZ  080106120A010A32FWN20MWH30WI45 000000
602AZ007231A8110014660970076620PHOENIX                 ARIZ  080106120A011A21MWH42MWN12ST81A000000
602AZ007231A8110014660970076620PHOENIX                 ARIZ  090214120A001ABBFBN24MBN40DA99 000000
602AZ007231A8110014660970076620PHOENIX                 ARIZ  090214120A002A45MWH33MWH30AQ45 000000
602AZ007231A8110014660970076620PHOENIX                 ARIZ  090214120A003B29MIN00UUU20UN99 000000
602AZ007231A8110014660970076620PHOENIX                 ARIZ  090214120A004A16MWH17MBN30AQ99 000000
602AZ007231A8110014660970076620PHOENIX                 ARIZ  090214120A005B33MWH00UUU12UN05 000000
602AZ007231A8110014660970076620PHOENIX                 ARIZ  090214120A006A55MBN40MBN12FR42 000000
602AZ007231A8110014660970076620PHOENIX                 ARIZ  090214120A007B49MWH00UUU12UN99 000000
602AZ007231A8110014660970076620PHOENIX                 ARIZ  090214120A008A47FBN28FBN30OF99 000000
602AZ007231A8110014660970076620PHOENIX                 ARIZ  090214120A009A28MBN36MBN11AQ18 000000
602AZ007231A8110014660970076620PHOENIX                 ARIZ  090214120A010A20MWN22MWN12AQ99 000000
602AZ007231A8110014660970076620PHOENIX                 ARIZ  090214120A011B23MWH00UUU12UN99 000000
602AZ007231A8110014660970076620PHOENIX                 ARIZ  100319120A001B22MBN00UUU12UN99 000000
602AZ007231A8110014660970076620PHOENIX                 ARIZ  100319120A002B26MWH00UUU12UN18 000000
602AZ007231A8110014660970076620PHOENIX                 ARIZ  100319120A003A31MWN47MWH11FR45 000000
602AZ007231A8110014660970076620PHOENIX                 ARIZ  100319120A004B20MWH00UUU20UN99 000000
602AZ007231A8110014660970076620PHOENIX                 ARIZ  100319120A005B25MWN00UUU11UN99 000000
602AZ007231A8110014660970076620PHOENIX                 ARIZ  100319120A006A21MWH16MWH12UN99 000000
602AZ007231A8110014660970076620PHOENIX                 ARIZ  100319120A007A30FBN22MBN30AQ41 000000
602AZ007231A8110014660970076620PHOENIX                 ARIZ  100319120A008C24MWH35MWN12ST81A000001                                                  38MWN12ST81A
602AZ007231A8110014660970076620PHOENIX                 ARIZ  110725121A001A56FWN53MWN20AQ99 000000
602AZ007231A8110014660970076620PHOENIX                 ARIZ  110807121A002F41MW 00UU 12UN99 00100041MW
602AZ007231A8110014660970076620PHOENIX                 ARIZ  110725121A003A33MWN39MBN12AQ99 000000
602AZ007231A8110014660970076620PHOENIX                 ARIZ  110725121A004A23MIN41MWH20AQ80C000000
602AZ007231A8110014660970076620PHOENIX                 ARIZ  110725121A005B46MWH00UUU12UN99 000000
602AZ007231A8110014660970076620PHOENIX                 ARIZ  110725121A006A26MWN21MWH12ST03 000000
602AZ007231A8110014660970076620PHOENIX                 ARIZ  110725121A007B40MWH00UUU12UN18 000000
602AZ007231A8110014660970076620PHOENIX                 ARIZ  110725121A008B37MBN00UUU11UN99 000000
602AZ007231A8110014660970076620PHOENIX                 ARIZ  110725121A009A29MBN35FWN12ST80E000000
602AZ007231A8110014660970076620PHOENIX                 ARIZ  120402120A001B56MWH00UUU30UN99 000000
602AZ007231A8110014660970076620PHOENIX                 ARIZ  120402120A004B64MBN00UUU80UN03 000000
602AZ007231A8110014660970076620PHOENIX                 ARIZ  120402120A005A28FWN26MWN12WI99 000000
602AZ007231A8110014660970076620PHOENIX                 ARIZ  120402120A006A24FWH24MWN12GF99 000000
602AZ007231A8110014660970076620PHOENIX                 ARIZ  120402120A007A29MWH26MBN12ST45 000000
602AZ007231A8110014660970076620PHOENIX                 ARIZ  120402120A008A19MWH31MWN12ST81A000000
602AZ007231A8110014660970076620PHOENIX                 ARIZ  120402120B009A50MBN29FBN90SO59 000000
602AZ007252 8110002204620076620SCOTTSDALE              ARIZ  080106120A001A24FWN60MWN12OK45 000000
602AZ007252 8110002204620076620SCOTTSDALE              ARIZ  080106120A002C21MWN30MWN11AQ45 000001                                                  36MWN11AQ45
602AZ007252 8110002204620076620SCOTTSDALE              ARIZ  110326120A001A50MWN59MWN12ST45 000000
602AZ007252 8110002204620076620SCOTTSDALE              ARIZ  120402120A001A20MWU26MBN14HO45 000000
602AZ007292 8110001640080076620TEMPE                   ARIZ  061027110A001A29MIN34MIN20OF45 000000
602AZ007292 8110001640080076620TEMPE                   ARIZ  061027110B002A69FWN64MWN12WI51 000000
602AZ007292 8110001640080076620TEMPE                   ARIZ  071220110B001A27MWN28MWN12FR59 000000
602AZ007292 8110001640080076620TEMPE                   ARIZ  080106120A001A75FWN77MWN12WI99 000000
602AZ007292 8110001640080076620TEMPE                   ARIZ  080106120A002A47MWH60MWN20AQ45 000000
602AZ007292 8110001640080076620TEMPE                   ARIZ  090214120A001B64FWN00UUU20UN99 000000
602AZ007292 8110001640080076620TEMPE                   ARIZ  100319120A001A29MWN28MWN12ST05 000000
602AZ007336 8110000064530076621WICKENBURG              ARIZ  051003110A001A63FWN60MWN12OK99 000000
602AZ008009B8110000762950084191MOHAVE                  ARIZ  030809110A001A53MWU43MWU90AQ99 000000
602AZ008009B8110000762950084191MOHAVE                  ARIZ  080106120A001C51MWN29MWN20FR45 000001                                                  28MWN20FR45
602AZ008009B8110000762950084191MOHAVE                  ARIZ  090214120A001A76FWN49MWN20AQ03 000000
602AZ008009B8110000762950084191MOHAVE                  ARIZ  090214120A002A30MWN25MWN12ST99 000000
602AZ008009B8110000762950084191MOHAVE                  ARIZ  110326120A001A51MWN34MWN14AQ99 000000
602AZ008009B8110000762950084191MOHAVE                  ARIZ  120402120A001A47MWN29MWN12ST99 000000
602AZ008014 8110000284650084190KINGMAN                 ARIZ  071220110A001C27MWH31MWN12AQ44 000001                                                  41MWN12AQ44
602AZ008014 8110000284650084190KINGMAN                 ARIZ  110326120A001A23MWH47MWN30OK45 000000
602AZ008043 8110000532710084190LAKE HAVASU CITY        ARIZ  110326120A001A62MWN43MWN12UN99 000000
602AZ008054 8110000401000084191BULLHEAD CITY           ARIZ  020728110A001A39MWH24MWH12AQ40 000000
602AZ008054 8110000401000084191BULLHEAD CITY           ARIZ  030809110A001A55MWN48MWH20AQ45 000000
602AZ008054 8110000401000084191BULLHEAD CITY           ARIZ  080106120A001B36MWH00UUU20UN18 000000
602AZ009008B811000069060009   0NAVAJO                  ARIZ  061027110A001A47FWN53MWN12WI99 000000
602AZ009008B811000069060009   0NAVAJO                  ARIZ  120402120A001A37MWN28MWH20AQ42 000000
602AZ009035 811000010811009   0SHOW LOW                ARIZ  040322121A001E45MW 19MW 20AQ05 00100146FW                                              21MW 20AQ05
602AZ009096 811000009792009   0WINSLOW                 ARIZ  020319120A001A67FBN45MBN20MO99 000000
602AZ009096 811000009792009   0WINSLOW                 ARIZ  060319120A001A20MWH21MWN20FR42 000000
602AZ010009A8110003582640109061PIMA                    ARIZ  010906111A001D30MWN22MWN12ST99 00500063MWN76FWN76MWN79FWN09FWN
602AZ010009A8110003582640109061PIMA                    ARIZ  020803111A001ABBMW 19MW 85SO99 000000
602AZ010009A8110003582640109061PIMA                    ARIZ  030809110A001A20MWH19MWH12AQ45 000000
602AZ010009A8110003582640109061PIMA                    ARIZ  030809110A002A44MWU00MWU13UN99 000000
602AZ010009A8110003582640109061PIMA                    ARIZ  051003110A001A26MWH00MUU13ST99 000000
602AZ010009A8110003582640109061PIMA                    ARIZ  071220110A001B50MWU00UUU20UN99 000000
602AZ010009A8110003582640109061PIMA                    ARIZ  071220110A002A53MWU00MWU12ST81F000000
602AZ010009A8110003582640109061PIMA                    ARIZ  080214120A001A34MWN41MWN13NE45 000000
602AZ010009A8110003582640109061PIMA                    ARIZ  100319120A001A40MWH00MUU12UN18 000000
602AZ010009A8110003582640109061PIMA                    ARIZ  100319120A002A27MWN23MWN12AQ18 000000
602AZ010009A8110003582640109061PIMA                    ARIZ  100319120A003B43MWH00UUU30UN99 000000
602AZ010009A8110003582640109061PIMA                    ARIZ  120402120A001A17MWH19MWH12ST18 000000
602AZ010016 8110000057320109061SOUTH TUCSON            ARIZ  020728110A001A28MWH18MWH14ST18 000000
602AZ010016 8110000057320109061SOUTH TUCSON            ARIZ  090214120A001A21MWH24MWH12AQ42 000000
602AZ010016 8110000057320109061SOUTH TUCSON            ARIZ  100319120A001A23MIN48MIN20AQ45 000000
602AZ010031B8110005274790109060TUCSON                  ARIZ  010629110A001B27MIN00UUU12UN99 000000
602AZ010031B8110005274790109060TUCSON                  ARIZ  010629110A002A23MBN16MBN12AQ46 000000
602AZ010031B8110005274790109060TUCSON                  ARIZ  010629110A003C21MWH19MWH12AQ18 000002                                                  20MWN12AQ18 21MWH12AQ18
602AZ010031B8110005274790109060TUCSON                  ARIZ  010629110A004A43MIN64MBN30AQ99 000000
602AZ010031B8110005274790109060TUCSON                  ARIZ  010629110A005A40MBN33MBN20OF44 000000
602AZ010031B8110005274790109060TUCSON                  ARIZ  020810111A001A59MW 57MW 40AQ40 000000
602AZ010031B8110005274790109060TUCSON                  ARIZ  020728110A002A23MWH18MIN20ST99 000000
602AZ010031B8110005274790109060TUCSON                  ARIZ  020728110A003A25MWH00MWH12AQ45 000000
602AZ010031B8110005274790109060TUCSON                  ARIZ  020728110A004A15MWH24MWH11ST03 000000
602AZ010031B8110005274790109060TUCSON                  ARIZ  020728110B005BBBMWH00UUU90UN59 000000
602AZ010031B8110005274790109060TUCSON                  ARIZ  030809110A001A62MWN47FWN12BF99 000000
602AZ010031B8110005274790109060TUCSON                  ARIZ  030809110A002A24MWN18MWN12AQ45 000000
602AZ010031B8110005274790109060TUCSON                  ARIZ  030810111A003E22MW 22MW 13OF80C00100124MW                                              20MW 12AQ80C
602AZ010031B8110005274790109060TUCSON                  ARIZ  030810111A004C22MW 30MW 12ST81D000006                                                  31MW 12ST81D30MW 12ST81D37MW 12ST81D32MW 12ST81D32MW 12ST81D45MW 12ST81D
602AZ010031B8110005274790109060TUCSON                  ARIZ  041220111A001B00MUU00UUU90UN99 000000
602AZ010031B8110005274790109060TUCSON                  ARIZ  041220111A002A16FIN18MWH12AQ99 000000
602AZ010031B8110005274790109060TUCSON                  ARIZ  041220111A003B24MBN00UUU12UN46 000000
602AZ010031B8110005274790109060TUCSON                  ARIZ  041220111A004A39MWH37MWH12AQ42 000000
602AZ010031B8110005274790109060TUCSON                  ARIZ  041220111A005A07MWH21MIN12ST99 000000
602AZ010031B8110005274790109060TUCSON                  ARIZ  041220111A006B54MBN00UUU20UN99 000000
602AZ010031B8110005274790109060TUCSON                  ARIZ  051003110A001B53MWH00UUU30UN99 000000
602AZ010031B8110005274790109060TUCSON                  ARIZ  051003110A002B22MWH00UUU12UN45 000000
602AZ010031B8110005274790109060TUCSON                  ARIZ  051003110A003C46MWH00FUU12AQ44 000001                                                  00MUU12UN44
602AZ010031B8110005274790109060TUCSON                  ARIZ  051003110A004B43MIN00UUU12UN99 000000
602AZ010031B8110005274790109060TUCSON                  ARIZ  051003110A005A32MWH50MBN12AQ45 000000
602AZ010031B8110005274790109060TUCSON                  ARIZ  051003110A006C26MWH25MWN12ST81A000001                                                  33FWH12ST81A
602AZ010031B8110005274790109060TUCSON                  ARIZ  061027110A001A22MWH21MWN12AQ45 000000
602AZ010031B8110005274790109060TUCSON                  ARIZ  061027110A002A62FWN59MWN12WI99 000000
602AZ010031B8110005274790109060TUCSON                  ARIZ  061027110A003A61MWN26MWN20AQ99 000000
602AZ010031B8110005274790109060TUCSON                  ARIZ  061027110A004B34MWH00UUU12UN99 000000
602AZ010031B8110005274790109060TUCSON                  ARIZ  061027110A005A30MWN26MWN12ST81A000000
602AZ010031B8110005274790109060TUCSON                  ARIZ  061102111A006C43MW 32MW 12ST81A000004                                                  33MW 12ST81A35FW 12ST81A47MW 12ST81A40MW 12ST81A
602AZ010031B8110005274790109060TUCSON                  ARIZ  071220110A001C25MWH26MIN12ST26 000001                                                  28MIN12ST26
602AZ010031B8110005274790109060TUCSON                  ARIZ  071220110A002A22MWH19MWH12AQ18 000000
602AZ010031B8110005274790109060TUCSON                  ARIZ  080106120A001A50MWH24MWN12ST45 000000
602AZ010031B8110005274790109060TUCSON                  ARIZ  080106120A002A43MWN21MWN12AQ99 000000
602AZ010031B8110005274790109060TUCSON                  ARIZ  080106120A003B22MWH00UUU12UN46 000000
602AZ010031B8110005274790109060TUCSON                  ARIZ  090214120A001B41MWH00UUU12UN99 000000
602AZ010031B8110005274790109060TUCSON                  ARIZ  090214120A002B24MBN00UUU12UN46 000000
602AZ010031B8110005274790109060TUCSON                  ARIZ  090214120A003B37MWH00UUU90UN99 000000
602AZ010031B8110005274790109060TUCSON                  ARIZ  090214120A004A40FWN38MBN12GF45 000000
602AZ010031B8110005274790109060TUCSON                  ARIZ  090214120A005C31MWH26MIN12AQ46 000003                                                  39MWH12AQ46 32MWH12AQ46 37MWH12AQ46
602AZ010031B8110005274790109060TUCSON                  ARIZ  090214120A006C27MWH26MWH12ST80E000001                                                  22MWH12ST80E
602AZ010031B8110005274790109060TUCSON                  ARIZ  100319120A001B22MWH00UUU12UN99 000000
602AZ010031B8110005274790109060TUCSON                  ARIZ  100319120A002B23MBN00UUU12UN45 000000
602AZ010031B8110005274790109060TUCSON                  ARIZ  100319120A003B31MBN00UUU12UN45 000000
602AZ010031B8110005274790109060TUCSON                  ARIZ  100319120A004A44MWH18MWN12ST45 000000
602AZ010031B8110005274790109060TUCSON                  ARIZ  100319120A005A17FWH19MWH20GF99 000000
602AZ010031B8110005274790109060TUCSON                  ARIZ  110326120A001A18MIN21MIN14OF46 000000
602AZ010031B8110005274790109060TUCSON                  ARIZ  110326120A002A34MWH32MWH12AQ45 000000
602AZ010031B8110005274790109060TUCSON                  ARIZ  110326120A003B45MWN00UUU14UN99 000000
602AZ010031B8110005274790109060TUCSON                  ARIZ  110326120A004F28FBN00UUU15UN99 00100051MBN
602AZ010031B8110005274790109060TUCSON                  ARIZ  110326120A005B31MWH00UUU12UN18 000000
602AZ010031B8110005274790109060TUCSON                  ARIZ  120402120A001A26MBN24MIN20AQ45 000000
602AZ010031B8110005274790109060TUCSON                  ARIZ  120402120A002B29MWH00UUU13UN45 000000
602AZ010031B8110005274790109060TUCSON                  ARIZ  120402120A003B18MWH00UUU12UN46 000000
602AZ010031B8110005274790109060TUCSON                  ARIZ  120402120A004A46MAN46MAN12AQ45 000000
602AZ010074 8110000415920109061ORO VALLEY              ARIZ  080106120A001A71MWH37MWH12FA99 000000
602AZ010094 8110000354560109061MARANA                  ARIZ  030809110A001C16MWN17MWH20AQ03 000001                                                  15MWH20AQ03
602AZ010094 8110000354560109061MARANA                  ARIZ  080106120A001B41MWN00UUU12UN99 000000
602AZ010977 8110000000000109061UNIVERSITY OF ARIZONA   ARIZ  090326120A001A35MWH24MWH12UN46 000000
602AZ011009A8110001906280116621PINAL                   ARIZ  011003110A001B00MUU00UUU90UN99 000000
602AZ011009A8110001906280116621PINAL                   ARIZ  011003110A002A20MWH18MWH30AQ99 000000
602AZ011009A8110001906280116621PINAL                   ARIZ  031003110A001A18MWH25MWH12OF99 000000
602AZ011009A8110001906280116621PINAL                   ARIZ  031003110A002B80FWN00UUU90UN99 000000
602AZ011009A8110001906280116621PINAL                   ARIZ  051003110A001C57MWN38FBN12AQ40 000001                                                  30MWN12AQ40
602AZ011009A8110001906280116621PINAL                   ARIZ  071220110B001A35MWN47MWN90OF59 000000
602AZ011014 8110000492590116621CASA GRANDE             ARIZ  040906110A001A27MWN18MBN12UN99 000000
602AZ011014 8110000492590116621CASA GRANDE             ARIZ  100322121A001E26MW 36MW 12UN18 00100136MW                                              26MW 12UN18
602AZ011014 8110000492590116621CASA GRANDE             ARIZ  120402120A001A26MWH47MWH30UN99 000000
602AZ011055 8110000168660116621ELOY                    ARIZ  010728110A001C54MWN47MWN30ST99 000001                                                  41MWN30ST99
602AZ011055 8110000168660116621ELOY                    ARIZ  010728110A002A55MWN00MUU12UN99 000000
602AZ011055 8110000168660116621ELOY                    ARIZ  120402120A001B17MWH00UUU12UN99 000000
602AZ011134 8110000363470116621APACHE JUNCTION         ARIZ  070116130A001E42MW 52MW 12UN99 00100423MW                                              30FW 12UN99 30MW 12UN99 25MU 12UN99 25FW 12UN99
602AZ011134 8110000363470116621APACHE JUNCTION         ARIZ  090116130A001C24MW 35MW 11AQ45 000003                                                  35FW 11BF45 37MW 11AQ45 18MW 11AQ45
602AZ012008B811000026033012   0SANTA CRUZ              ARIZ  110726120A001F41MWH00UUU12UN99 00200027MWH25MWH
602AZ012015 811000021132012   0NOGALES                 ARIZ  020809110A001A35FWH38MWH20WI40 000000
602AZ013009B8110000889170136881YAVAPAI                 ARIZ  020728110A001A31FWU43MWU13AQ99 000000
602AZ013009B8110000889170136881YAVAPAI                 ARIZ  020728110A002A52MWU48MWU14FR99 000000
602AZ013009B8110000889170136881YAVAPAI                 ARIZ  030809110A001B40MWN00UUU13UN99 000000
602AZ013009B8110000889170136881YAVAPAI                 ARIZ  040327121A001D53MW 40MW 15AQ45 00100063FW
602AZ013009B8110000889170136881YAVAPAI                 ARIZ  090214120A001A23FAN23MWN12AQ45 000000
602AZ013009B8110000889170136881YAVAPAI                 ARIZ  090214120A002A19MWN20MBN20AQ99 000000
602AZ013009B8110000889170136881YAVAPAI                 ARIZ  090214120A003A19MWN19MWN20AQ45 000000
602AZ013009B8110000889170136881YAVAPAI                 ARIZ  120402120A001A48FWN47MWN12WI99 000000
602AZ013074 8110000404070136880PRESCOTT                ARIZ  010629110A001A44FWN24MWN20AQ99 000000
602AZ013074 8110000404070136880PRESCOTT                ARIZ  061027110A001C57MWN47MBN20AQ45 000001                                                  45FWN20HU45
602AZ013074 8110000404070136880PRESCOTT                ARIZ  080106120A001A59FWU62MWU12WI99 000000
602AZ013074 8110000404070136880PRESCOTT                ARIZ  090214120A001A43MWN23MWN40ST42 000000
602AZ013114 8110000393720136881PRESCOTT VALLEY         ARIZ  010629110A001A59FWU59MWU12WI99 000000
602AZ013114 8110000393720136881PRESCOTT VALLEY         ARIZ  030906110A001C37MBN22FWN90UN45 000002                                                  25MBN90FR45 53MWN90FR45
602AZ013114 8110000393720136881PRESCOTT VALLEY         ARIZ  040906110A001A50FWN68MWN12AQ26 000000
602AZ013135 8110000110270136881CAMP VERDE              ARIZ  110326120A001A49MWN61MWN12BR44 000000
602AZ014009B8110000608630149921YUMA                    ARIZ  010116130A001D48FW 39MW 13OK60 00100060MW
602AZ014009B8110000608630149921YUMA                    ARIZ  060116130A001A52FW 73MW 12UN99 000000
602AZ014009B8110000608630149921YUMA                    ARIZ  060116130A002A61FW 73MW 12XW99 000000
602AZ014009B8110000608630149921YUMA                    ARIZ  060116130A003D76MW 73MW 12OK45 00100079FW
602AZ014009B8110000608630149921YUMA                    ARIZ  060116130A004A50MW 76MW 90AQ99 000000
602AZ014009B8110000608630149921YUMA                    ARIZ  060116130A005A19FW 19MW 85GF45 000000
602AZ014009B8110000608630149921YUMA                    ARIZ  120116130A001A45FW 65MW 11WI99 000000
602AZ014053 8110000943810149920YUMA                    ARIZ  040906110A001A37MWH28MWH20AQ45 000000
602AZ014053 8110000943810149920YUMA                    ARIZ  051003110A001A01FWH00MWH90ST99 000000
602AZ014053 8110000943810149920YUMA                    ARIZ  061027110A001A62MWN73MWN12ST99 000000
602AZ014053 8110000943810149920YUMA                    ARIZ  120402120A001A47FWN21MWN80MO99 000000
603AR002008C711000013590002   0ASHLEY                  ARK   090116130A001C34MW 39MW 20UN99 000003                                                  27FW 20UN99 22FW 20UN99 39MW 20UN99
603AR003008B711000025467003   0BAXTER                  ARK   020116130A001D50MW 33MW 13OK99 00100054FW
603AR004009B7110000486600042701BENTON                  ARK   120116130A001A20MW 49MW 11ST60 000000
603AR004023 7110000563870042700ROGERS                  ARK   050116130A001A25MW 27MW 11UN99 000000
603AR004023 7110000563870042700ROGERS                  ARK   080116130A001A30FW 29MW 11ST81A000000
603AR005008C711000023353005   0BOONE                   ARK   100116130A001A26MU 73MW 12SO99 000000
603AR005015 711000013041005   0HARRISON                ARK   110116130A001A24FW 25MW 12UN45 000000
603AR006016 711000006048006   0WARREN                  ARK   070116130A001C23MB 23MB 12UN99 000001                                                  30MB 12UN99
603AR008016 711000005397008   0BERRYVILLE              ARK   090116130A001A35MW 53MW 90ST60 000000
603AR009036 711000002594009   0LAKE VILLAGE            ARK   060116130A001A58MW 58FW 12HU45 000000
603AR012008C711000017127012   0CLEBURNE                ARK   010116130A001A17FW 19MW 14AQ60 000000
603AR015008C711000013784015   0CONWAY                  ARK   050116130A001C29MB 21MB 14UN45 000001                                                  21MB 14UN45
603AR015016 711000006818015   0MORRILTON               ARK   050116130A001A29MB 21MB 14UN45 000000
603AR016009C7110000205400163961CRAIGHEAD               ARK   010116130A001A21FW 32MW 30UN45 000000
603AR016013 7110000677720163960JONESBORO               ARK   080116130A001C34MW 33FW 11UN60 000003                                                  58MW 11UN60 27MB 11UN60 51MU 11UN60
603AR017009B7110000323260172851CRAWFORD                ARK   060116130A001A57MW 43FB 20BF45 000000
603AR018009D7110000099730185191CRITTENDEN              ARK   030116130A001A58MB 44MW 90UN45 000000
603AR018014 7110000264440185191WEST MEMPHIS            ARK   020116130A001A21MB 26MB 12AQ45 000000
603AR018014 7110000264440185191WEST MEMPHIS            ARK   050116130A001A28FB 32MB 20GF05 000000
603AR018014 7110000264440185191WEST MEMPHIS            ARK   100116130A001C18MB 16MB 20OK45 000001                                                  16MB 20UN45
603AR018014 7110000264440185191WEST MEMPHIS            ARK   110116130A001A32MB 24MB 11UN99 000000
603AR018045 7110000124380185191MARION                  ARK   080116130A001A29MB 30FB 12UN45 000000
603AR018045 7110000124380185191MARION                  ARK   080116130A002C41FB 46MB 11UN99 000001                                                  20FB 11UN99
603AR021016 711000004251021   0MCGEHEE                 ARK   030116130A001A13MB 19MB 12UN45 000000
603AR021036 711000004742021   0DUMAS                   ARK   110116130A001A25FB 26MB 11GF45 000000
603AR022016 711000009539022   0MONTICELLO              ARK   030116130A001B25MB 00UU 12UN99 000000
603AR022016 711000009539022   0MONTICELLO              ARK   090116130A001A48MB 42MB 20UN45 000000
603AR023013 7110000593540234690CONWAY                  ARK   020116130A001A39MW 35MW 30NE45 000000
603AR023013 7110000593540234690CONWAY                  ARK   060116130A001C28MB 27MB 11OK60 000002                                                  28MB 11AQ60 16FW 11ST60
603AR023013 7110000593540234690CONWAY                  ARK   090116130A001C47MB 00MB 12UN03 000002                                                  00MB 12UN03 00UU 12UN03
603AR023013 7110000593540234690CONWAY                  ARK   120116130A001A55MW 47FW 90BF45 000000
603AR026009B7110000612910263561GARLAND                 ARK   120116130A001B46FW 00UU 90UN99 000000
603AR026014 7110000354590263560HOT SPRINGS             ARK   100116130A001D27MW 24MB 12AQ45 00100026MB
603AR028014 711000026311028   0PARAGOULD               ARK   080116130A001A27MW 48MB 20OK45 000000
603AR030015 711000010396030   0MALVERN                 ARK   040116130A001A21MB 18MB 12OK60 000000
603AR034027 711000001876034   0TUCKERMAN               ARK   100116130A001A61MW 35MW 30SF26 000000
603AR035009C7110000207010356641JEFFERSON               ARK   030116130A001B00MW 00UU 90UN99 000000
603AR035009C7110000207010356641JEFFERSON               ARK   030116130A002B78MB 00UU 11UN99 000000
603AR035014 7110000494540356640PINE BLUFF              ARK   040116130A001B38MB 00UU 11UN99 000000
603AR035014 7110000494540356640PINE BLUFF              ARK   040116130A002A24MB 28MB 12UN99 000000
603AR035014 7110000494540356640PINE BLUFF              ARK   050116130A001B30MB 00UU 11UN99 000000
603AR035014 7110000494540356640PINE BLUFF              ARK   060116130A001A21FB 20FB 12UN45 000000
603AR035014 7110000494540356640PINE BLUFF              ARK   070116130A001A21MB 27MB 12AQ45 000000
603AR035014 7110000494540356640PINE BLUFF              ARK   080116130A001B29MB 00UU 12UN99 000000
603AR035014 7110000494540356640PINE BLUFF              ARK   080116130A002A23FB 24MB 12GF45 000000
603AR035014 7110000494540356640PINE BLUFF              ARK   090116130A001A31MB 17MB 11ST99 000000
603AR035014 7110000494540356640PINE BLUFF              ARK   100116130A001B23MB 00UU 11UN99 000000
603AR035014 7110000494540356640PINE BLUFF              ARK   110116130A001A21MB 27MB 11UN99 000000
603AR035014 7110000494540356640PINE BLUFF              ARK   110116130A002C38MB 18MB 12UN99 000001                                                  22MB 12UN99
603AR035014 7110000494540356640PINE BLUFF              ARK   120116130A001B27MB 00UU 12UN60 000000
603AR039008D711000006357039   0LEE                     ARK   040116130A001C00MW 00MW 14UN99 000001                                                  00MW 14UN99
603AR039008D711000006357039   0LEE                     ARK   120116130A001A39FB 48MB 11UN45 000000
603AR040009C7110000111070406641LINCOLN                 ARK   090116130A001B21MB 00UU 12UN45 000000
603AR043009B7110000294120434691LONOKE                  ARK   040116130A001B60MW 00UU 14UN03 000001                                                  00UU 14UN03
603AR043009B7110000294120434691LONOKE                  ARK   050116130A001A19MW 17MW 20UN45 000000
603AR043009B7110000294120434691LONOKE                  ARK   050116130A002B25MW 00UU 11UN60 000000
603AR043046 7110000042770434691LONOKE                  ARK   090116130A001A28MB 24MB 12UN45 000000
603AR046014 7110000301450468870TEXARKANA               ARK   040116130A001C21MB 32FB 12UN99 000003                                                  19FB 12UN99 22MB 12UN99 25MB 12UN99
603AR047015 711000015738047   0BLYTHEVILLE             ARK   010116130A001B33MB 00UU 11UN99 000000
603AR047015 711000015738047   0BLYTHEVILLE             ARK   030116130A001B20MB 00UU 12UN99 000000
603AR047015 711000015738047   0BLYTHEVILLE             ARK   060116130A001B33MW 00UU 14UN99 000000
603AR047015 711000015738047   0BLYTHEVILLE             ARK   070116130A001A30MB 30MB 11UN45 000000
603AR047015 711000015738047   0BLYTHEVILLE             ARK   090116130A001E27MB 27MB 11UN45 00100122MB                                              22MB 11UN45
603AR047026 711000007816047   0OSCEOLA                 ARK   010116130A001A46FB 27MB 11AQ99 000000
603AR047026 711000007816047   0OSCEOLA                 ARK   120116130A001A35MW 40MB 20UN60 000000
603AR050016 711000003321050   0PRESCOTT                ARK   090116130A001A27MB 20FB 20AQ99 000000
603AR052015 711000012275052   0CAMDEN                  ARK   060116130A001C26MW 19MB 12UN99 000001                                                  25MB 12UN99
603AR054015 711000012375054   0HELENA-WEST HELENA      ARK   040116130A001C21FB 60MB 12UN99 000001                                                  60MU 12UN99
603AR054015 711000012375054   0HELENA-WEST HELENA      ARK   050116130A001B32UU 00UU 11UN99 000000
603AR054015 711000012375054   0HELENA-WEST HELENA      ARK   070116130A001C26FB 00MB 12UN99 000002                                                  00MB 12UN99 00MB 12UN99
603AR054015 711000012375054   0HELENA-WEST HELENA      ARK   070116130A002B39FU 00UU 11UN99 000000
603AR054015 711000012375054   0HELENA-WEST HELENA      ARK   070116130A003B22UI 00UU 11UN99 000000
603AR054015 711000012375054   0HELENA-WEST HELENA      ARK   080116130A001A19MB 24MB 11OF99 000000
603AR055008D711000007520055   0PIKE                    ARK   090116130A001B67MW 00UU 20UN99 000000
603AR055008D711000007520055   0PIKE                    ARK   090116130A002C00MW 36MW 20UN45 000001                                                  36FW 20UN45
603AR055027 711000002245055   0GLENWOOD                ARK   090116130A001A02MW 35MW 30OK60 000000
603AR056026 7110000072980563961TRUMANN                 ARK   040116130A001A30MU 37MW 12UN60 000000
603AR056037 7110000023050563961HARRISBURG              ARK   080116130A001A30MW 54FW 12UN99 000000
603AR060009B7110000514880604691PULASKI                 ARK   010116130A001A65MW 24MW 30OF99 000000
603AR060009B7110000514880604691PULASKI                 ARK   040116130A001A28MB 28UU 11UN99 000000
603AR060009B7110000514880604691PULASKI                 ARK   040116130A002B37MB 00UU 11UN99 000000
603AR060009B7110000514880604691PULASKI                 ARK   110116130A001C22MB 37MB 11UN99 000001                                                  25MB 11UN99
603AR060009B7110000514880604691PULASKI                 ARK   110116130A002A45FB 40MB 90AQ99 000000
603AR060009B7110000514880604691PULASKI                 ARK   120116130A001C31MB 00MB 11UN60 000001                                                  00MB 11UN60
603AR060022 7110001949880604690LITTLE ROCK             ARK   010116130A001C35MB 38MB 11UN99 000001                                                  36FB 11UN99
603AR060022 7110001949880604690LITTLE ROCK             ARK   010116130A002B65MW 00UU 90UN99 000000
603AR060022 7110001949880604690LITTLE ROCK             ARK   010116130A003D50MB 33MB 11UN60 00100025FB
603AR060022 7110001949880604690LITTLE ROCK             ARK   010116130A004B21MB 00UU 12UN99 000000
603AR060022 7110001949880604690LITTLE ROCK             ARK   010116130A005C17MB 00MB 11UN99 000001                                                  00MB 11UN99
603AR060022 7110001949880604690LITTLE ROCK             ARK   020116130A001D55MB 00MB 11UN99 00100041MB
603AR060022 7110001949880604690LITTLE ROCK             ARK   020116130A002A41MB 43MB 12UN99 000000
603AR060022 7110001949880604690LITTLE ROCK             ARK   020116130A003C29MB 63MW 11OK45 000001                                                  29MB 11OK45
603AR060022 7110001949880604690LITTLE ROCK             ARK   020116130A004B26MB 00UU 11UN99 000000
603AR060022 7110001949880604690LITTLE ROCK             ARK   040116130A001A47FB 44MB 20WI45 000000
603AR060022 7110001949880604690LITTLE ROCK             ARK   040116130A002A29MB 40MW 12UN99 000000
603AR060022 7110001949880604690LITTLE ROCK             ARK   040116130A003A28MB 25MB 12UN26 000000
603AR060022 7110001949880604690LITTLE ROCK             ARK   050116130A001C19MB 16FB 11UN99 000001                                                  19MB 11UN99
603AR060022 7110001949880604690LITTLE ROCK             ARK   050116130A002A28MB 37MB 20ST99 000000
603AR060022 7110001949880604690LITTLE ROCK             ARK   060116130A001A24MB 26MB 11UN99 000000
603AR060022 7110001949880604690LITTLE ROCK             ARK   060116130A002A30MB 33MB 11OK99 000000
603AR060022 7110001949880604690LITTLE ROCK             ARK   070116130A001A29MB 30MB 11UN45 000000
603AR060022 7110001949880604690LITTLE ROCK             ARK   070116130A002B14MB 00UU 12UN99 000000
603AR060022 7110001949880604690LITTLE ROCK             ARK   080116130A001B35MB 00UU 12UN45 000000
603AR060022 7110001949880604690LITTLE ROCK             ARK   080116130A002C23MB 29MB 11UN99 000001                                                  30MB 11UN99
603AR060022 7110001949880604690LITTLE ROCK             ARK   080116130A003B41MB 00UU 11UN99 000000
603AR060022 7110001949880604690LITTLE ROCK             ARK   090116130A001A57MB 45FB 30AQ99 000000
603AR060022 7110001949880604690LITTLE ROCK             ARK   100116130A001A48MB 40MB 12OK45 000000
603AR060022 7110001949880604690LITTLE ROCK             ARK   100116130A002B20FW 00UU 90UN99 000000
603AR060022 7110001949880604690LITTLE ROCK             ARK   100116130A003A44MB 26MB 11UN99 000000
603AR060022 7110001949880604690LITTLE ROCK             ARK   100116130A004A39MB 48MB 11UN99 000000
603AR060022 7110001949880604690LITTLE ROCK             ARK   110116130A001A23MB 11UU 11UN99 000000
603AR060022 7110001949880604690LITTLE ROCK             ARK   110116130A002A68FW 46MB 12UN06 000000
603AR060022 7110001949880604690LITTLE ROCK             ARK   110116130A003C32MB 00MB 11UN99 000003                                                  00MB 11UN99 00MB 11UN99 00MB 11UN99
603AR060022 7110001949880604690LITTLE ROCK             ARK   110116130A004B34MB 00UU 11UN99 000001                                                  00UU 11UN99
603AR060022 7110001949880604690LITTLE ROCK             ARK   110116130A005A56MB 34MB 20UN45 000000
603AR060022 7110001949880604690LITTLE ROCK             ARK   120116130A001A31MB 25MB 11UN45 000000
603AR060022 7110001949880604690LITTLE ROCK             ARK   120116130A002A42MB 30FB 20CH45 000000
603AR060022 7110001949880604690LITTLE ROCK             ARK   120116130A003C35MW 32MB 11ST26 000001                                                  00MB 11ST26
603AR060022 7110001949880604690LITTLE ROCK             ARK   120116130A004C23MB 23MB 12AQ18 000001                                                  24MB 12UN18
603AR060022 7110001949880604690LITTLE ROCK             ARK   120116130A005C25MB 20MB 11UN99 000003                                                  29MB 11UN99 21MB 11UN99 24MB 11UN99
603AR060033 7110000627750604690NORTH LITTLE ROCK       ARK   020116130A001A49MB 37MB 12UN45 000000
603AR060033 7110000627750604690NORTH LITTLE ROCK       ARK   030116130A001C67FW 22MB 20AQ99 000001                                                  24FB 20AQ99
603AR060033 7110000627750604690NORTH LITTLE ROCK       ARK   040116130A001A27MB 22MB 11AQ45 000000
603AR060033 7110000627750604690NORTH LITTLE ROCK       ARK   050116130A001A24MB 25MB 12UN45 000000
603AR060033 7110000627750604690NORTH LITTLE ROCK       ARK   050116130A002E00MB 20MB 12ST99 00100231MB                                              30FB 12ST99 21MB 12ST99
603AR060033 7110000627750604690NORTH LITTLE ROCK       ARK   060116130A001A49MB 40FB 20BF99 000000
603AR060033 7110000627750604690NORTH LITTLE ROCK       ARK   070116130A001A49MB 18MB 12FA99 000000
603AR060033 7110000627750604690NORTH LITTLE ROCK       ARK   070116130A002B44MB 00UU 12UN99 000000
603AR060033 7110000627750604690NORTH LITTLE ROCK       ARK   080116130A001C38MB 22MB 11UN99 000001                                                  22FW 11UN99
603AR060033 7110000627750604690NORTH LITTLE ROCK       ARK   100116130A001A31MW 36FW 12HU45 000000
603AR060033 7110000627750604690NORTH LITTLE ROCK       ARK   100116130A002A59FB 51MB 12AQ43 000000
603AR060033 7110000627750604690NORTH LITTLE ROCK       ARK   120116130A001A28MB 20FB 20BF45 000000
603AR060044 7110000297460604691SHERWOOD                ARK   080116130A001A74FW 59MW 90AQ60 000000
603AR060044 7110000297460604691SHERWOOD                ARK   090116130A001A46FB 50MB 90GF45 000000
603AR060165 7110000172930604691MAUMELLE                ARK   070116130A001E56MW 27MW 40UN45 00100158FW                                              27MW 40UN45
603AR062008C711000012210062   0ST. FRANCIS             ARK   030116130A001B24MU 00UU 12UN99 000000
603AR062015 711000015487062   0FORREST CITY            ARK   120116130A001A53MB 48MB 13AQ99 000000
603AR066013 7110000868610662850FORT SMITH              ARK   070116130A001A27MW 22MB 20OK99 000000
603AR066013 7110000868610662850FORT SMITH              ARK   070116130A002D26FW 29UB 12UN60 00200021FW 25FW
603AR066013 7110000868610662850FORT SMITH              ARK   120116130A001A24FW 33MW 40WI42 000000
603AR067008C711000010543067   0SEVIER                  ARK   090116130A001A19FW 25MW 20UN26 000000
603AR070015 711000019027070   0EL DORADO               ARK   010116130A001A22MB 19MB 12UN45 000000
603AR070015 711000019027070   0EL DORADO               ARK   080116130A001A00FU 21MB 40UN99 000000
603AR072009B7110000472690722701WASHINGTON              ARK   050116130A001A46FW 49MW 12WI45 000000
603AR072009B7110000472690722701WASHINGTON              ARK   090116130A001A29MW 23FW 65BF26 000000
603AR072013 7110000741370722700FAYETTEVILLE            ARK   010116130A001A90FW 90MW 13WI60 000000
603AR072023 7110000703250722700SPRINGDALE              ARK   060116130A001A22MW 25MW 20OF45 000000
603AR073008B711000038101073   0WHITE                   ARK   010116130A001ABBMW 23MW 30SO60 000000
603AR073008B711000038101073   0WHITE                   ARK   020116130A001A27MW 12MW 20AQ60 000000
603AR073008B711000038101073   0WHITE                   ARK   110116130A001A37MW 31MW 20AQ45 000000
603AR073015 711000023031073   0SEARCY                  ARK   100116130A001B24UU 00UU 12UN99 000000
604CA001009A9110001429280017831ALAMEDA                 CALIF 010629111A001B21MWN00UUU11UN99 000000
604CA001009A9110001429280017831ALAMEDA                 CALIF 060721111A001C26MBN20MBN12ST45 000001                                                  20MBN12ST45
604CA001009A9110001429280017831ALAMEDA                 CALIF 110124121A001B32MAN00UUU12UN99 000000
604CA001013 9110000746800017830ALAMEDA                 CALIF 040705111A001C32MWN26MBN12ST03 000002                                                  22MBN12ST03 18MBN12ST03
604CA001032 9110001139030017830BERKELEY                CALIF 030629111A001B30MBN00UUU12UN18 000000
604CA001052 9110002166060017830FREMONT                 CALIF 010629111A001A59MWN45MAN12AQ45 000000
604CA001052 9110002166060017830FREMONT                 CALIF 071005111A001B32MWH00UUU11UN99 000000
604CA001062 9110001458810017830HAYWARD                 CALIF 010629111A001B27MBN00UUU11UN99 000000
604CA001062 9110001458810017830HAYWARD                 CALIF 020320121A001A18MWH27MWH20ST99 000000
604CA001062 9110001458810017830HAYWARD                 CALIF 070214121A001B25MBN00UUU11UN99 000000
604CA001062 9110001458810017830HAYWARD                 CALIF 090214121A001B65MWH00UUU12UN99 000000
604CA001062 9110001458810017830HAYWARD                 CALIF 090229121A002B36MW 00UU 12UN99 000000
604CA001062 9110001458810017830HAYWARD                 CALIF 100214121A001B24MAN00UUU12UN99 000000
604CA001062 9110001458810017830HAYWARD                 CALIF 110214121A001B17MWH00UUU12UN99 000000
604CA001073 9110000819200017830LIVERMORE               CALIF 010823111A001A96FWN51MWN12OF99 000000
604CA001073 9110000819200017830LIVERMORE               CALIF 031230111A001A48MWN41MWN20ST45 000000
604CA001073 9110000819200017830LIVERMORE               CALIF 030405121A002B52FW 00UU 90UN99 000000
604CA001084 9110000430730017831NEWARK                  CALIF 040705111A001A25FUU33MWN20CW45 000000
604CA001091C9110003953170017830OAKLAND                 CALIF 010629111A001B18MBN00UUU11UN99 000000
604CA001091C9110003953170017830OAKLAND                 CALIF 010629111A002B21MBN00UUU11UN99 000000
604CA001091C9110003953170017830OAKLAND                 CALIF 010629111A003B45MBN00UUU12UN99 000000
604CA001091C9110003953170017830OAKLAND                 CALIF 010629111A004B15MBN00UUU12UN99 000000
604CA001091C9110003953170017830OAKLAND                 CALIF 010629111A005B29MBN00UUU12UN99 000000
604CA001091C9110003953170017830OAKLAND                 CALIF 010629111A006B29MWN00UUU11UN99 000000
604CA001091C9110003953170017830OAKLAND                 CALIF 010629111A007B19MBN00UUU11UN99 000000
604CA001091C9110003953170017830OAKLAND                 CALIF 010629111A008B18MWN00UUU12UN99 000000
604CA001091C9110003953170017830OAKLAND                 CALIF 010705111A009B31MBN00UUU11UN99 000000
604CA001091C9110003953170017830OAKLAND                 CALIF 010629111A010A20MBN33MAN11ST81A000000
604CA001091C9110003953170017830OAKLAND                 CALIF 010629111A011B62MBN00UUU30UN99 000000
604CA001091C9110003953170017830OAKLAND                 CALIF 010629111A012B64MBN00UUU11UN99 000000
604CA001091C9110003953170017830OAKLAND                 CALIF 010629111A013A19MBN33MAN11ST81A000000
604CA001091C9110003953170017830OAKLAND                 CALIF 010629111A014A39MWN37MWN11ST81E000000
604CA001091C9110003953170017830OAKLAND                 CALIF 020705111A001B33MWN00UUU12UN99 000000
604CA001091C9110003953170017830OAKLAND                 CALIF 020705111A002B30MBN00UUU11UN99 000000
604CA001091C9110003953170017830OAKLAND                 CALIF 020705111A003F27FBN00UUU11UN99 00100031MBN
604CA001091C9110003953170017830OAKLAND                 CALIF 020705111A004A42MBN26MBN20OF45 000000
604CA001091C9110003953170017830OAKLAND                 CALIF 031005111A001B22MBN00UUU12UN99 000000
604CA001091C9110003953170017830OAKLAND                 CALIF 031005111A002A56MBN34MBN12ST99 000000
604CA001091C9110003953170017830OAKLAND                 CALIF 031005111A003B31MBN00UUU12UN99 000000
604CA001091C9110003953170017830OAKLAND                 CALIF 031005111A004B33MWN00UUU14UN99 000000
604CA001091C9110003953170017830OAKLAND                 CALIF 031005111A005B70MBN00UUU11UN99 000000
604CA001091C9110003953170017830OAKLAND                 CALIF 031005111A006F22MBN00UUU11UN99 00100035MBN
604CA001091C9110003953170017830OAKLAND                 CALIF 031005111A007B39MBN00UUU11UN99 000000
604CA001091C9110003953170017830OAKLAND                 CALIF 031005111A008B22MWN00UUU11UN99 000000
604CA001091C9110003953170017830OAKLAND                 CALIF 041005111A001B58MWN00UUU12UN99 000000
604CA001091C9110003953170017830OAKLAND                 CALIF 041005111A002B26MBN00UUU11UN99 000000
604CA001091C9110003953170017830OAKLAND                 CALIF 041005111A003B23MBN00UUU11UN99 000000
604CA001091C9110003953170017830OAKLAND                 CALIF 041005111A004A25MBN22MBN11ST99 000000
604CA001091C9110003953170017830OAKLAND                 CALIF 041005111A005B34MBN00UUU11UN99 000000
604CA001091C9110003953170017830OAKLAND                 CALIF 041005111A006B33FBN00UUU11UN99 000000
604CA001091C9110003953170017830OAKLAND                 CALIF 041005111A007F27MBN00UUU11UN47 00100023MBN
604CA001091C9110003953170017830OAKLAND                 CALIF 041005111A008B39MAN00UUU11UN99 000000
604CA001091C9110003953170017830OAKLAND                 CALIF 041005111A009A25MAN31MAN13FR99 000000
604CA001091C9110003953170017830OAKLAND                 CALIF 050207121A001B32MBN00UUU12UN99 000000
604CA001091C9110003953170017830OAKLAND                 CALIF 050207121A002E23MBN42MBN12ST81A00100130MBN                                             32MWN12ST81A
604CA001091C9110003953170017830OAKLAND                 CALIF 050207121A003B42MWN00UUU11UN03 000000
604CA001091C9110003953170017830OAKLAND                 CALIF 050207121A004B24MBN00UUU12UN99 000000
604CA001091C9110003953170017830OAKLAND                 CALIF 050207121A005B22FBN00UUU13UN99 000000
604CA001091C9110003953170017830OAKLAND                 CALIF 050207121A006B17MBN00UUU12UN99 000000
604CA001091C9110003953170017830OAKLAND                 CALIF 050207121A007F28FBN00UUU11UN99 00100029MBN
604CA001091C9110003953170017830OAKLAND                 CALIF 050207121A008A57MAN14MBN15ST03 000000
604CA001091C9110003953170017830OAKLAND                 CALIF 061123111A001B50MBN00UUU12UN99 000000
604CA001091C9110003953170017830OAKLAND                 CALIF 061123111A002B49MBN00UUU20UN99 000000
604CA001091C9110003953170017830OAKLAND                 CALIF 061123111A003B30MBN00UUU11UN99 000000
604CA001091C9110003953170017830OAKLAND                 CALIF 061123111A004A18MWN18MWN14OK47 000000
604CA001091C9110003953170017830OAKLAND                 CALIF 061123111A005B35MBN00UUU11UN99 000000
604CA001091C9110003953170017830OAKLAND                 CALIF 061123111A006B28MBN00UUU11UN99 000000
604CA001091C9110003953170017830OAKLAND                 CALIF 061123111A007B18MBN00UUU11UN99 000000
604CA001091C9110003953170017830OAKLAND                 CALIF 061123111A008B19MBN00UUU11UN99 000000
604CA001091C9110003953170017830OAKLAND                 CALIF 061123111A009B26MBN00UUU11UN99 000000
604CA001091C9110003953170017830OAKLAND                 CALIF 070411121A001B37MB 00UU 12UN99 000000
604CA001091C9110003953170017830OAKLAND                 CALIF 070411121A002B30MB 00UU 11UN99 000000
604CA001091C9110003953170017830OAKLAND                 CALIF 070411121A003B22MB 00UU 11UN45 000000
604CA001091C9110003953170017830OAKLAND                 CALIF 070411121A004A50FB 51MB 20GF45 000000
604CA001091C9110003953170017830OAKLAND                 CALIF 070411121A005A20MB 20MB 12ST99 000000
604CA001091C9110003953170017830OAKLAND                 CALIF 070411121A006C21FW 22MW 30ST99 000001                                                  31MW 30ST99
604CA001091C9110003953170017830OAKLAND                 CALIF 070411121A007C25MB 19MW 13UN46 000001                                                  19MB 13UN46
604CA001091C9110003953170017830OAKLAND                 CALIF 070411121A008B28MB 00UU 12UN99 000000
604CA001091C9110003953170017830OAKLAND                 CALIF 070411121A009B38MB 00UU 12UN99 000000
604CA001091C9110003953170017830OAKLAND                 CALIF 070411121A010B29MB 00UU 13UN99 000000
604CA001091C9110003953170017830OAKLAND                 CALIF 070411121A011B16MB 00UU 11UN99 000000
604CA001091C9110003953170017830OAKLAND                 CALIF 070411121A012B26FW 00UU 11UN99 000000
604CA001091C9110003953170017830OAKLAND                 CALIF 070411121A013B21MB 00UU 11UN99 000000
604CA001091C9110003953170017830OAKLAND                 CALIF 080411121A001B20MB 00UU 12UN99 000000
604CA001091C9110003953170017830OAKLAND                 CALIF 080411121A002B25FB 00UU 11UN99 000000
604CA001091C9110003953170017830OAKLAND                 CALIF 080411121A003A03MW 26MB 11UN60 000000
604CA001091C9110003953170017830OAKLAND                 CALIF 080411121A004B20MW 00UU 12UN99 000000
604CA001091C9110003953170017830OAKLAND                 CALIF 080411121A005B28MW 00UU 13UN46 000000
604CA001091C9110003953170017830OAKLAND                 CALIF 080411121A006B18MB 00UU 11UN99 000000
604CA001091C9110003953170017830OAKLAND                 CALIF 080411121A007A24MB 21MB 12ST45 000000
604CA001091C9110003953170017830OAKLAND                 CALIF 080411121A008C39MW 17MB 12ST03 000001                                                  17MB 12ST03
604CA001091C9110003953170017830OAKLAND                 CALIF 080411121A009B20MB 00UU 11UN99 000000
604CA001091C9110003953170017830OAKLAND                 CALIF 090411121A001A20MB 21MB 12UN99 000000
604CA001091C9110003953170017830OAKLAND                 CALIF 090411121A002B21MB 00UU 11UN99 000000
604CA001091C9110003953170017830OAKLAND                 CALIF 090411121A003D56FW 47MW 20ST60 00100073MW
604CA001091C9110003953170017830OAKLAND                 CALIF 090411121A004B33MB 00UU 12UN99 000000
604CA001091C9110003953170017830OAKLAND                 CALIF 090411121A005B31MB 00UU 12UN99 000000
604CA001091C9110003953170017830OAKLAND                 CALIF 090411121A006A20MW 22MB 11AQ45 000000
604CA001091C9110003953170017830OAKLAND                 CALIF 090411121A007A34MW 27MW 12UN81B000000
604CA001091C9110003953170017830OAKLAND                 CALIF 090411121A008B40MB 00UU 12UN99 000000
604CA001091C9110003953170017830OAKLAND                 CALIF 100411121A001B30MW 00UU 11UN99 000000
604CA001091C9110003953170017830OAKLAND                 CALIF 100411121A002B20MB 00UU 12UN99 000000
604CA001091C9110003953170017830OAKLAND                 CALIF 100411121A003B20MB 00UU 12UN99 000000
604CA001091C9110003953170017830OAKLAND                 CALIF 100411121A004B22MB 00UU 12UN03 000000
604CA001091C9110003953170017830OAKLAND                 CALIF 100411121A005F20MB 00UU 12UN18 00100022MB
604CA001091C9110003953170017830OAKLAND                 CALIF 100411121A006A78FA 81MA 12WI45 000000
604CA001091C9110003953170017830OAKLAND                 CALIF 100411121A007A90MW 52MW 40FA45 000000
604CA001091C9110003953170017830OAKLAND                 CALIF 100411121A008B34MB 00UU 11UN99 000000
604CA001091C9110003953170017830OAKLAND                 CALIF 110411121A001B32MB 00UU 12UN03 000000
604CA001091C9110003953170017830OAKLAND                 CALIF 110411121A002B19MW 00UU 11UN46 000000
604CA001091C9110003953170017830OAKLAND                 CALIF 110411121A003B32MB 00UU 12UN99 000000
604CA001091C9110003953170017830OAKLAND                 CALIF 110411121A004B25MB 00UU 12UN45 000000
604CA001091C9110003953170017830OAKLAND                 CALIF 110411121A005B23MB 00UU 12UN99 000000
604CA001091C9110003953170017830OAKLAND                 CALIF 110411121A006A28MB 20FB 20BF45 000000
604CA001091C9110003953170017830OAKLAND                 CALIF 120412121A001B01MB 00UU 12UN45 000000
604CA001091C9110003953170017830OAKLAND                 CALIF 120412121A002B46MA 00UU 12UN99 000000
604CA001091C9110003953170017830OAKLAND                 CALIF 120412121A003A24MB 30MB 12ST99 000000
604CA001091C9110003953170017830OAKLAND                 CALIF 120412121A004B21MB 00UU 11UN99 000000
604CA001091C9110003953170017830OAKLAND                 CALIF 120412121A005B23MB 00UU 11UN99 000000
604CA001091C9110003953170017830OAKLAND                 CALIF 120412121A006B25MW 00UU 11UN99 000000
604CA001091C9110003953170017830OAKLAND                 CALIF 120412121A007B05MW 00UU 12UN60 000000
604CA001123 9110000859490017830SAN LEANDRO             CALIF 010629111A001B24MBN00UUU11UN99 000000
604CA001123 9110000859490017830SAN LEANDRO             CALIF 020705111A001A46MWN41MWN20AQ26 000000
604CA001123 9110000859490017830SAN LEANDRO             CALIF 030629111A001A08FWN53FWN85DA60 000000
604CA001123 9110000859490017830SAN LEANDRO             CALIF 100207121A001F23MBN00UUU12UN99 00200016FBN19FBN
604CA001123 9110000859490017830SAN LEANDRO             CALIF 101230111A002B50MWH00UUU90UN99 000000
604CA001133 9110000703330017830UNION CITY              CALIF 050721111A001B34MWH00UUU11UN99 000000
604CA001133 9110000703330017830UNION CITY              CALIF 050721111A002B49MWH00UUU11UN99 000000
604CA001133 9110000703330017830UNION CITY              CALIF 060823111A001B34MBN00UUU11UN99 000000
604CA001147 9110000000000017831E BAY REG PKS:ALAMEDA COCALIF 070823111A001B20MBN00UUU11UN26 000000
604CA003008C911000023292003   0AMADOR                  CALIF 090320121A001C59MWN27MWN13ST81A000001                                                  34MWN13ST81A
604CA003008C911000023292003   0AMADOR                  CALIF 090405121A002C45MA 20MA 12UN18 000003                                                  22MA 12UN18 18MA 12UN18 19MA 12UN18
604CA003056 911000002530003   0SUTTER CREEK            CALIF 030629111A001A62FWN33MWN20MO26 000000
604CA004009B9110000847430041641BUTTE                   CALIF 040705111A001A56MWN47FWN12CH45 000000
604CA004009B9110000847430041641BUTTE                   CALIF 081230111A001A55MWN31MWN13SO99 000000
604CA004009B9110000847430041641BUTTE                   CALIF 120207121A001A29MWN27MWN12AQ80E000000
604CA004023 9110000872000041640CHICO                   CALIF 010629111A001A23MBN21MWH11ST99 000000
604CA004023 9110000872000041640CHICO                   CALIF 010705111A002C20MWH19MWH11OK47 000001                                                  18MWH11OK47
604CA004023 9110000872000041640CHICO                   CALIF 091031111A001A26MAN27MWN11ST99 000000
604CA004023 9110000872000041640CHICO                   CALIF 101230111A001A35MWN35MWN14ST99 000000
604CA004023 9110000872000041640CHICO                   CALIF 120207121A001A66FWN44MAN30MO44 000000
604CA004045 9110000157290041641OROVILLE                CALIF 120320121A001A48MWN23MWN12AQ03 000000
604CA005008B911000042233005   0CALAVERAS               CALIF 060214121A001A53MWN41MWN40OK45 000000
604CA006008C911000010447006   0COLUSA                  CALIF 081031111A001B42MWH00UUU60UN99 000000
604CA007009A9110001565270077831CONTRA COSTA            CALIF 010705111A001B17MWH00UUU12UN26 000000
604CA007009A9110001565270077831CONTRA COSTA            CALIF 010629111A002A49MBN30FBN20BF45 000000
604CA007009A9110001565270077831CONTRA COSTA            CALIF 030629111A001B21MBN00UUU11UN26 000000
604CA007009A9110001565270077831CONTRA COSTA            CALIF 030629111A002B22MBN00UUU11UN26 000000
604CA007009A9110001565270077831CONTRA COSTA            CALIF 050705111A001B22MWN00UUU11UN99 000000
604CA007009A9110001565270077831CONTRA COSTA            CALIF 070823111A001B28MUU00UUU11UN99 000000
604CA007009A9110001565270077831CONTRA COSTA            CALIF 101230111A001A23MWN54FWN11OK45 000000
604CA007009A9110001565270077831CONTRA COSTA            CALIF 101230111A002B24MBN00UUU12UN26 000000
604CA007009A9110001565270077831CONTRA COSTA            CALIF 101123111A003B22MWH00UUU11UN44 000000
604CA007009A9110001565270077831CONTRA COSTA            CALIF 111230111A001A46MWN19MBN20OK45 000000
604CA007009A9110001565270077831CONTRA COSTA            CALIF 110329121A002B18MBN00UUU11UN26 000000
604CA007009A9110001565270077831CONTRA COSTA            CALIF 111230111A003B20MBN00UUU11UN99 000000
604CA007009A9110001565270077831CONTRA COSTA            CALIF 120124121A001A48MWN48MWN20FR99 000000
604CA007012 9110001035750077830ANTIOCH                 CALIF 020629111A001ABBMWH23MWH40SO60 000000
604CA007012 9110001035750077830ANTIOCH                 CALIF 040705111A001A26MWN30MWN12OK45 000000
604CA007012 9110001035750077830ANTIOCH                 CALIF 050721111A001B19MBN00UUU12UN99 000000
604CA007012 9110001035750077830ANTIOCH                 CALIF 050721111B002A01FWH19FWH75DA59 000000
604CA007012 9110001035750077830ANTIOCH                 CALIF 081005111A001B16MWH00UUU12UN47 000000
604CA007012 9110001035750077830ANTIOCH                 CALIF 101230111A001B20MBN00UUU12UN99 000000
604CA007012 9110001035750077830ANTIOCH                 CALIF 110207121A001A34MWN70MWN12ST80E000000
604CA007012 9110001035750077830ANTIOCH                 CALIF 110322121A002C33MW 40MW 12ST81A000003                                                  31MW 12ST81A35MW 12ST81A40MW 12ST81A
604CA007042 9110001235020077830CONCORD                 CALIF 040629111A001A20MWN19MWN20OK45 000000
604CA007042 9110001235020077830CONCORD                 CALIF 040629111A002A32FWN32MWN12GF45 000000
604CA007042 9110001235020077830CONCORD                 CALIF 050721111A001B40MWN00UUU40ST42 000000
604CA007042 9110001235020077830CONCORD                 CALIF 070823111A001B58MWN00UUU30UN99 000000
604CA007042 9110001235020077830CONCORD                 CALIF 081031111A001B27MWH00UUU11UN47 000000
604CA007042 9110001235020077830CONCORD                 CALIF 101230111A001C21FWN23MWN20AQ44 000002                                                  17MWN20AQ44 20FWN20AQ44
604CA007042 9110001235020077830CONCORD                 CALIF 110207121A001A47MWN41FWN85BF45 000000
604CA007075 9110000186060077831PINOLE                  CALIF 081031111A001A25MBN31MWN12ST81E000000
604CA007075 9110000186060077831PINOLE                  CALIF 091031111A001A42MWN42MWN12FR40 000000
604CA007083 9110000640080077830PITTSBURG               CALIF 111230111A001D35FUU40MWN14WI45 00200073MUU65FUU
604CA007102 9110001049200077830RICHMOND                CALIF 010705111A001C16MBN16MBN12ST99 000002                                                  16MBN12ST99 19MBN12ST99
604CA007102 9110001049200077830RICHMOND                CALIF 030705111A001B26MBN00UUU12UN26 000000
604CA007102 9110001049200077830RICHMOND                CALIF 030629111A002B18MBN00UUU12UN26 000000
604CA007102 9110001049200077830RICHMOND                CALIF 030629111A003A21MWH35MWH12AQ40 000000
604CA007102 9110001049200077830RICHMOND                CALIF 040705111A001B19MWH00UUU12UN99 000000
604CA007102 9110001049200077830RICHMOND                CALIF 050721111A001B24MBN00UUU12UN99 000000
604CA007102 9110001049200077830RICHMOND                CALIF 050721111A002B30MBN00UUU12UN99 000000
604CA007102 9110001049200077830RICHMOND                CALIF 060823111A001B51MBN00UUU40UN03 000000
604CA007102 9110001049200077830RICHMOND                CALIF 060823111A002B51MWH00UUU12UN99 000000
604CA007102 9110001049200077830RICHMOND                CALIF 060823111A003A28MBN24FBN12BF45 000000
604CA007102 9110001049200077830RICHMOND                CALIF 060823111A004B24MBN00UUU12UN99 000000
604CA007102 9110001049200077830RICHMOND                CALIF 060823111A005B31MBN00UUU12UN99 000000
604CA007102 9110001049200077830RICHMOND                CALIF 071005111A001B19MBN00UUU12UN99 000000
604CA007102 9110001049200077830RICHMOND                CALIF 071005111A002B26MBN00UUU12UN99 000000
604CA007102 9110001049200077830RICHMOND                CALIF 071005111A003F37FBN00UUU12UN99 00100037MBN
604CA007102 9110001049200077830RICHMOND                CALIF 071005111A004B20MBN00UUU12UN99 000000
604CA007102 9110001049200077830RICHMOND                CALIF 071005111A005B20MWH00UUU12UN45 000000
604CA007102 9110001049200077830RICHMOND                CALIF 071005111A006C36MBN28MBN12ST03 000001                                                  19MBN12ST03
604CA007102 9110001049200077830RICHMOND                CALIF 071005111A007E28MBN34FBN12ST80C00100119MBN                                             59MBN12ST80C
604CA007102 9110001049200077830RICHMOND                CALIF 081005111A001B24MBN00UUU12UN99 000000
604CA007102 9110001049200077830RICHMOND                CALIF 081005111A002B25FBN00UUU12UN99 000000
604CA007102 9110001049200077830RICHMOND                CALIF 081005111A003B18MBN00UUU12UN99 000000
604CA007102 9110001049200077830RICHMOND                CALIF 081005111A004A67FUU21MUU12ST03 000000
604CA007102 9110001049200077830RICHMOND                CALIF 081005111A005B17MWH00UUU12UN99 000000
604CA007102 9110001049200077830RICHMOND                CALIF 091031111A001A30FWN42MWN20GF45 000000
604CA007102 9110001049200077830RICHMOND                CALIF 120207121A001A46MBN26MBN12ST99 000000
604CA007102 9110001049200077830RICHMOND                CALIF 120207121A002A20MBN27MBN12ST80C000000
604CA007114 9110000294820077831SAN PABLO               CALIF 020629111A001B27MBN00UUU12UN99 000000
604CA007114 9110000294820077831SAN PABLO               CALIF 030629111A001A48FWH51MWN11GF45 000000
604CA007114 9110000294820077831SAN PABLO               CALIF 101230111A001B24MBN00UUU13UN99 000000
604CA007123 9110000649270077830WALNUT CREEK            CALIF 120207121A001C48MWN22MWN30AQ45 000001                                                  28MWH30AQ45
604CA007136 9110000051370077831KENSINGTON              CALIF 030426121A001B50MW 00UU 40UN99 000000
604CA007344 9110000358490077831OAKLEY                  CALIF 030629111A001A41MWN39MWN12AQ99 000000
604CA007344 9110000358490077831OAKLEY                  CALIF 060721111A001A21MWN19MWH13ST47 000000
604CA007344 9110000358490077831OAKLEY                  CALIF 070823111A001A22MWH21MWH12OK26 000000
604CA008008C911000021213008   0DEL NORTE               CALIF 010629111A001A47FIN18MIN40MO45 000000
604CA008008C911000021213008   0DEL NORTE               CALIF 061230111A001A14FWN60MWN12OK99 000000
604CA009009A9110001510210097401EL DORADO               CALIF 081005111A001A02FUU49MUU90DA60 000000
604CA009009A9110001510210097401EL DORADO               CALIF 120124121A001A69MWN48MWN13SF45 000000
604CA009015 9110000105110097401PLACERVILLE             CALIF 020629111A001A50MWN44MWN12EE99 000000
604CA009025 9110000216550097401SOUTH LAKE TAHOE        CALIF 071230111A001A52MWN55MWN40OK99 000000
604CA010009A9110001869590102991FRESNO                  CALIF 040705111A001A44MIN30MWH20NE45 000000
604CA010009A9110001869590102991FRESNO                  CALIF 050705111A001B36MWH00UUU12UN99 000000
604CA010009A9110001869590102991FRESNO                  CALIF 070823111A001A29MWH21MWH12OK26 000000
604CA010009A9110001869590102991FRESNO                  CALIF 101230111A001B31MWH00UUU12UN99 000000
604CA010009A9110001869590102991FRESNO                  CALIF 120207121A001C16MWH19MWH20OK47 000001                                                  17MWH20OK47
604CA010009A9110001869590102991FRESNO                  CALIF 120207121A002B29MWH00UUU12UN99 000000
604CA010013 9110000967550102990CLOVIS                  CALIF 020721111A001A64FWH40FWH20MO45 000000
604CA010013 9110000967550102990CLOVIS                  CALIF 030823111A001B33MBN00UUU12UN99 000000
604CA010013 9110000967550102990CLOVIS                  CALIF 030823111A002B31MBN00UUU12UN99 000000
604CA010013 9110000967550102990CLOVIS                  CALIF 041005111A001A42FWN52MWN12GF45 000000
604CA010025 9110000135370102991COALINGA                CALIF 040823111A001C19MWH15MWH20ST47 000001                                                  16MWH20ST47
604CA010025 9110000135370102991COALINGA                CALIF 110207121A001A33MWH47MWH12ST80C000000
604CA010051B9110005004800102990FRESNO                  CALIF 010705111A001A40MWN37MBN40OK26 000000
604CA010051B9110005004800102990FRESNO                  CALIF 010629111A002A23MWH27MWH12FR47 000000
604CA010051B9110005004800102990FRESNO                  CALIF 020629111A001A33MWH33MWH20FR47 000000
604CA010051B9110005004800102990FRESNO                  CALIF 020629111A002A24MWH19MBN40ST47 000000
604CA010051B9110005004800102990FRESNO                  CALIF 020629111A003B31MWH00UUU11UN47 000000
604CA010051B9110005004800102990FRESNO                  CALIF 020629111A004B15MWH00UUU20UN47 000000
604CA010051B9110005004800102990FRESNO                  CALIF 030705111A001ABBFBN23FWN40DA60 000000
604CA010051B9110005004800102990FRESNO                  CALIF 030705111A002A37FBN55MBN11NE45 000000
604CA010051B9110005004800102990FRESNO                  CALIF 030705111A003A53MWN47MWH20ST45 000000
604CA010051B9110005004800102990FRESNO                  CALIF 030705111A004B19MBN00UUU90UN47 000000
604CA010051B9110005004800102990FRESNO                  CALIF 030705111A005A31MBN48MIN14ST81D000000
604CA010051B9110005004800102990FRESNO                  CALIF 030705111A006A36MWH32MWH14ST47 000000
604CA010051B9110005004800102990FRESNO                  CALIF 030705111A007A17MWH17MWH20ST45 000000
604CA010051B9110005004800102990FRESNO                  CALIF 041005111A001A54MBN29MBN11OK47 000000
604CA010051B9110005004800102990FRESNO                  CALIF 040721111A002B38MWH00UUU12UN99 000000
604CA010051B9110005004800102990FRESNO                  CALIF 040823111A003A25MWN21MWH11ST99 000000
604CA010051B9110005004800102990FRESNO                  CALIF 040823111A004D29MWH19MWH14ST99 00100022MWH
604CA010051B9110005004800102990FRESNO                  CALIF 050823111A001A27FWH33MBN12WI45 000000
604CA010051B9110005004800102990FRESNO                  CALIF 050823111A002A32MWH36FWN20BF45 000000
604CA010051B9110005004800102990FRESNO                  CALIF 061005111A001A71MWN33MBN30ST99 000000
604CA010051B9110005004800102990FRESNO                  CALIF 060823111A002B32MWH00UUU20UN47 000000
604CA010051B9110005004800102990FRESNO                  CALIF 061005111A003A13MBN14MBN11OK47 000000
604CA010051B9110005004800102990FRESNO                  CALIF 071123111A001B20MWH00UUU11UN47 000000
604CA010051B9110005004800102990FRESNO                  CALIF 071123111A002A26MBN21MBN11OK47 000000
604CA010051B9110005004800102990FRESNO                  CALIF 081031111A001A35MBN29FBN20BF80E000000
604CA010051B9110005004800102990FRESNO                  CALIF 090207121A001B19MWH00UUU11UN47 000000
604CA010051B9110005004800102990FRESNO                  CALIF 101230111A001B42MWH00UUU12UN03 000000
604CA010051B9110005004800102990FRESNO                  CALIF 110207121A001A17MWN17MWH20OK45 000000
604CA010051B9110005004800102990FRESNO                  CALIF 110207121A002B22MBN00UUU11UN47 000000
604CA010051B9110005004800102990FRESNO                  CALIF 110207121A003A02MBN22MBN40SS60 000000
604CA010051B9110005004800102990FRESNO                  CALIF 110207121A004A35MAN41MAN11ST45 000000
604CA010051B9110005004800102990FRESNO                  CALIF 110207121A005A52FAN48MWH11GF45 000000
604CA010051B9110005004800102990FRESNO                  CALIF 120411121A001A19MB 39MW 40OK99 000000
604CA010051B9110005004800102990FRESNO                  CALIF 120411121A002A25MW 30MW 11OK99 000000
604CA010051B9110005004800102990FRESNO                  CALIF 120411121A003D16MW 19MB 11OK46 00100018MW
604CA010075 9110000137030102991KERMAN                  CALIF 101230111A001B18MWH00UUU20UN45 000000
604CA010095 9110000111430102991MENDOTA                 CALIF 090411121A001F15MW 00UU 12UN60 00100022MW
604CA010125 9110000244780102991REEDLEY                 CALIF 110124121A001A25MWH26MWN12ST45 000000
604CA010135 9110000245550102991SANGER                  CALIF 030629111A001B49MWH00UUU12UN47 000000
604CA010135 9110000245550102991SANGER                  CALIF 081005111A001A99MWN46MWH40ST99 000000
604CA011008C911000014838011   0GLENN                   CALIF 050721111A001B20MWH00UUU12UN99 000000
604CA011008C911000014838011   0GLENN                   CALIF 060823111A001B24MWH00UUU12UN99 000000
604CA012008B911000074400012   0HUMBOLDT                CALIF 050721111A001C50MWN30FIN11ST05 000002                                                  29MIN11ST05 26FIN11ST05
604CA012008B911000074400012   0HUMBOLDT                CALIF 081031111A001A35MIN38FIN20BR45 000000
604CA012034 911000027511012   0EUREKA                  CALIF 101230111A001B53MBN00UUU13UN99 000000
604CA013024 9110000390250132381CALEXICO                CALIF 120207121A001A19MWH18MWH12FR99 000000
604CA013044 9110000430990132380EL CENTRO               CALIF 010705111A001A25MWH17MWH20ST45 000000
604CA013044 9110000430990132380EL CENTRO               CALIF 050721111A001A16FWH20MWH90ST47 000000
604CA014008C911000014839014   0INYO                    CALIF 120124121A001A45MIN40MIN85FR42 000000
604CA015009A9110003206970150691KERN                    CALIF 010629111A001A03MWN24MWN40OK60 000000
604CA015009A9110003206970150691KERN                    CALIF 010629111A002A56MWN41MWN20AQ44 000000
604CA015009A9110003206970150691KERN                    CALIF 030629111A001A24FWN52MWH12GF45 000000
604CA015009A9110003206970150691KERN                    CALIF 030629111A002B33MWH00UUU30UN47 000000
604CA015009A9110003206970150691KERN                    CALIF 030629111A003B00FUU00UUU90UN99 000000
604CA015009A9110003206970150691KERN                    CALIF 040629111A001A29MWN36MWN11FR45 000000
604CA015009A9110003206970150691KERN                    CALIF 040629111A002A16MWH22MWH11ST47 000000
604CA015009A9110003206970150691KERN                    CALIF 050721111A001A35MWH39MWN11ST99 000000
604CA015009A9110003206970150691KERN                    CALIF 050721111A002C38MWH37MWN12ST99 000001                                                  38MWN12ST99
604CA015009A9110003206970150691KERN                    CALIF 060823111A001A32MWN32MWN11ST81A000000
604CA015009A9110003206970150691KERN                    CALIF 070823111A001A56MBN23MWN12ST81A000000
604CA015009A9110003206970150691KERN                    CALIF 070823111A002B32MWH00UUU90UN99 000000
604CA015009A9110003206970150691KERN                    CALIF 070823111A003B30MWH00UUU90UN99 000000
604CA015009A9110003206970150691KERN                    CALIF 070823111A004B36MWH00UUU12UN99 000000
604CA015009A9110003206970150691KERN                    CALIF 070823111A005A45FWN39MWN12WI45 000000
604CA015009A9110003206970150691KERN                    CALIF 081005111A001A24MWH33MWH20ST99 000000
604CA015009A9110003206970150691KERN                    CALIF 081005111A002C34MWH41MWH11OK47 000001                                                  24MWH11OK47
604CA015009A9110003206970150691KERN                    CALIF 081005111A003C52MWN59MWN11AQ99 000001                                                  42MWN11AQ99
604CA015009A9110003206970150691KERN                    CALIF 091031111A001A42MUU19MWH11OK03 000000
604CA015009A9110003206970150691KERN                    CALIF 091031111A002A60MWN24MWN11AQ99 000000
604CA015009A9110003206970150691KERN                    CALIF 101123111A001B29MWH00UUU11UN99 000000
604CA015009A9110003206970150691KERN                    CALIF 111230111A001A19MWH21MWH11AQ99 000000
604CA015009A9110003206970150691KERN                    CALIF 111230111A002A21MWH23MWH11ST99 000000
604CA015009A9110003206970150691KERN                    CALIF 120207121A001A32MWN35MWN11OK99 000000
604CA015015 9110000195310150691ARVIN                   CALIF 091123111A001A27FWH35MWH20WI45 000000
604CA015021C9110003515680150690BAKERSFIELD             CALIF 010629111A001B21MWH00UUU20UN99 000000
604CA015021C9110003515680150690BAKERSFIELD             CALIF 010629111A002B50MWN00UUU20UN99 000000
604CA015021C9110003515680150690BAKERSFIELD             CALIF 010629111A003A29MWH23MWH90ST99 000000
604CA015021C9110003515680150690BAKERSFIELD             CALIF 020705111A001A27MWH22MUU11ST47 000000
604CA015021C9110003515680150690BAKERSFIELD             CALIF 030629111A001B21MWH00UUU12UN47 000000
604CA015021C9110003515680150690BAKERSFIELD             CALIF 030705111A002A26MBN21MWH13OF80C000000
604CA015021C9110003515680150690BAKERSFIELD             CALIF 040629111A001A37FBN59MWH90GF45 000000
604CA015021C9110003515680150690BAKERSFIELD             CALIF 040629111A002B48MBN00UUU11UN47 000000
604CA015021C9110003515680150690BAKERSFIELD             CALIF 040629111A003B42MWH00UUU11UN99 000000
604CA015021C9110003515680150690BAKERSFIELD             CALIF 050721111A001A36FUU37MWN90GF45 000000
604CA015021C9110003515680150690BAKERSFIELD             CALIF 050727111A002C26MW 23MW 12ST81A000003                                                  36MW 12ST81A35MW 12ST81A37MW 12ST81A
604CA015021C9110003515680150690BAKERSFIELD             CALIF 050721111A003B31MBN00UUU11UN47 000000
604CA015021C9110003515680150690BAKERSFIELD             CALIF 050721111A004B01FWH00UUU40UN60 000000
604CA015021C9110003515680150690BAKERSFIELD             CALIF 060823111A001B43MBN00UUU12UN47 000000
604CA015021C9110003515680150690BAKERSFIELD             CALIF 060823111A002B29MWH00UUU20UN99 000000
604CA015021C9110003515680150690BAKERSFIELD             CALIF 071005111A001B21MWH00UUU14UN99 000000
604CA015021C9110003515680150690BAKERSFIELD             CALIF 071005111A002C15MWH21MWH20ST47 000003                                                  19MWH20ST47 18MWH20ST47 15MWH20ST47
604CA015021C9110003515680150690BAKERSFIELD             CALIF 071005111A003A36MWN24MWN20AQ80C000000
604CA015021C9110003515680150690BAKERSFIELD             CALIF 100124121A001E41MBN50MAN12ST80C00100124MBN                                             25MAN12ST80C
604CA015021C9110003515680150690BAKERSFIELD             CALIF 110124121A001A37FWH23MWH20ST45 000000
604CA015021C9110003515680150690BAKERSFIELD             CALIF 120207121A001B31MBN00UUU20UN45 000000
604CA015021C9110003515680150690BAKERSFIELD             CALIF 120207121A002A21MBN25MBN12AQ47 000000
604CA015033 9110000536650150690DELANO                  CALIF 091031111A001B26MWH00UUU12UN03 000000
604CA015064 9110000279410150691RIDGECREST              CALIF 081005111A001A25MWN28MWH14AQ40 000000
604CA015064 9110000279410150691RIDGECREST              CALIF 081005111A002A73FWN43FWN30OK70 000000
604CA015064 9110000279410150691RIDGECREST              CALIF 081005111B003B59FWN00UUU90UN59 000000
604CA015075 9110000171880150691SHAFTER                 CALIF 010629111A001D36MWN37MWH90ST26 00100019MWH
604CA016009B9110000345680163421KINGS                   CALIF 020629111A001A45MWH24MIN11OK99 000000
604CA016009B9110000345680163421KINGS                   CALIF 111230111A001A19MWH24MWH11ST99 000000
604CA016014 9110000251050163420CORCORAN                CALIF 060823111A001A68FWH52MWH20GF45 000000
604CA016023 9110000546010163420HANFORD                 CALIF 071005111A001A26MWH18MWH12ST47 000000
604CA016023 9110000546010163420HANFORD                 CALIF 071005111A002C49FWN17MWH20ST03 000001                                                  18MWH20ST03
604CA016035 9110000248190163421LEMOORE                 CALIF 110411121A001A22MW 28MW 12OK45 000000
604CA016035 9110000248190163421LEMOORE                 CALIF 120418121A001A85FW 88MW 14WI45 000000
604CA016075 9110000156870163421AVENAL                  CALIF 110124121A001A18MWH21MWH12OK47 000000
604CA017008B911000045187017   0LAKE                    CALIF 091031111A001A48FWN50MWN12AQ03 000000
604CA017025 911000015429017   0CLEARLAKE               CALIF 060823111A001C04MWN21MWN14ST45 000002                                                  23MIN14ST45 29MWN14ST45
604CA017025 911000015429017   0CLEARLAKE               CALIF 071005111A001A51MWN67MWN12EE99 000000
604CA018008C911000017147018   0LASSEN                  CALIF 010111121A001C37MW 36FW 12HU40 000001                                                  46MW 12OK40
604CA019009A9110010698540194801LOS ANGELES             CALIF 010705111A001A37MWH27MBN12ST81B000000
604CA019009A9110010698540194801LOS ANGELES             CALIF 010705111A002B54MWN00UUU12UN99 000000
604CA019009A9110010698540194801LOS ANGELES             CALIF 010705111A003A38MWN23MWN40SF45 000000
604CA019009A9110010698540194801LOS ANGELES             CALIF 010705111A004B19MWH00UUU12UN47 000000
604CA019009A9110010698540194801LOS ANGELES             CALIF 010705111A005B26MWH00UUU12UN03 000000
604CA019009A9110010698540194801LOS ANGELES             CALIF 020705111A001B21MWH00UUU12UN47 000000
604CA019009A9110010698540194801LOS ANGELES             CALIF 020705111A002F25MWH00UUU13UN99 00300025MWH26MWH24MWH
604CA019009A9110010698540194801LOS ANGELES             CALIF 020705111A003B17MBN00UUU12UN99 000000
604CA019009A9110010698540194801LOS ANGELES             CALIF 020705111A004E42FWH26MWH90OK99 00100153MWH                                             22FWH90OK99
604CA019009A9110010698540194801LOS ANGELES             CALIF 020705111A005A33MBN45MWN12ST81A000000
604CA019009A9110010698540194801LOS ANGELES             CALIF 020705111A006B16MBN00UUU12UN47 000000
604CA019009A9110010698540194801LOS ANGELES             CALIF 031005111A001A20MWH22MWH85OK48 000000
604CA019009A9110010698540194801LOS ANGELES             CALIF 031005111A002A30FWH34MWH12GF45 000000
604CA019009A9110010698540194801LOS ANGELES             CALIF 031005111A003A24MWH33MWH12ST81A000000
604CA019009A9110010698540194801LOS ANGELES             CALIF 030705111A004A46FWH46MWH20WI45 000000
604CA019009A9110010698540194801LOS ANGELES             CALIF 030705111A006B24MWH00UUU12UN47 000000
604CA019009A9110010698540194801LOS ANGELES             CALIF 030320121A007A14MWH15MWH90AQ26 000000
604CA019009A9110010698540194801LOS ANGELES             CALIF 040705111A001B24MWH00UUU30UN99 000000
604CA019009A9110010698540194801LOS ANGELES             CALIF 040705111A002B19MBN00UUU12UN99 000000
604CA019009A9110010698540194801LOS ANGELES             CALIF 040721111A003A17MWH18MWH12ST47 000000
604CA019009A9110010698540194801LOS ANGELES             CALIF 040705111A004B23MWH00UUU30UN99 000000
604CA019009A9110010698540194801LOS ANGELES             CALIF 040705111A005B41MBN00UUU12UN47 000000
604CA019009A9110010698540194801LOS ANGELES             CALIF 040705111A006B18FBN00UUU12UN45 000000
604CA019009A9110010698540194801LOS ANGELES             CALIF 040705111A007B55MWN00UUU12UN99 000000
604CA019009A9110010698540194801LOS ANGELES             CALIF 040721111A008B29MWH00UUU12UN47 000000
604CA019009A9110010698540194801LOS ANGELES             CALIF 040705111A009B25MWH00UUU12UN99 000000
604CA019009A9110010698540194801LOS ANGELES             CALIF 040705111A010B24MWH00UUU12UN47 000000
604CA019009A9110010698540194801LOS ANGELES             CALIF 040721111A011A33FWN27MWN12OF99 000000
604CA019009A9110010698540194801LOS ANGELES             CALIF 050823111A001B23FWH00UUU12UN47 000000
604CA019009A9110010698540194801LOS ANGELES             CALIF 050721111A002D33FWH45MWH12GF45 00200006FWH06MWH
604CA019009A9110010698540194801LOS ANGELES             CALIF 050721111A003A53MBN32MBN30ST99 000000
604CA019009A9110010698540194801LOS ANGELES             CALIF 050721111A004A28MWH15MBN13ST03 000000
604CA019009A9110010698540194801LOS ANGELES             CALIF 050721111A005A19MWH28MWH12ST81A000000
604CA019009A9110010698540194801LOS ANGELES             CALIF 050721111A006A19MBN19MWN20ST99 000000
604CA019009A9110010698540194801LOS ANGELES             CALIF 050721111A007A18MWH17MWH12ST47 000000
604CA019009A9110010698540194801LOS ANGELES             CALIF 060823111A001B31MWH00UUU12UN45 000000
604CA019009A9110010698540194801LOS ANGELES             CALIF 060823111A002A24MWH31MWH12ST26 000000
604CA019009A9110010698540194801LOS ANGELES             CALIF 060823111A003B26MWH00UUU20UN45 000000
604CA019009A9110010698540194801LOS ANGELES             CALIF 060823111A004B22MBN00UUU12UN45 000000
604CA019009A9110010698540194801LOS ANGELES             CALIF 060823111A005B41MBN00UUU12UN47 000000
604CA019009A9110010698540194801LOS ANGELES             CALIF 060823111A006B59FWN00UUU85UN99 000000
604CA019009A9110010698540194801LOS ANGELES             CALIF 060823111A007B27MBN00UUU12UN47 000000
604CA019009A9110010698540194801LOS ANGELES             CALIF 060823111A008B19MWH00UUU12UN47 000000
604CA019009A9110010698540194801LOS ANGELES             CALIF 060823111A009A02MWH27MWH40OK60 000000
604CA019009A9110010698540194801LOS ANGELES             CALIF 060823111A010B18MBN00UUU12UN47 000000
604CA019009A9110010698540194801LOS ANGELES             CALIF 060823111A011ABBFWN39FWN70DA60 000000
604CA019009A9110010698540194801LOS ANGELES             CALIF 071005111A001B26MWH00UUU12UN47 000000
604CA019009A9110010698540194801LOS ANGELES             CALIF 071005111A002B51MUU00UUU12UN47 000000
604CA019009A9110010698540194801LOS ANGELES             CALIF 071005111A003C36MWH27MWH12ST47 000001                                                  20MWH12ST47
604CA019009A9110010698540194801LOS ANGELES             CALIF 071005111A004B41MBN00UUU12UN47 000000
604CA019009A9110010698540194801LOS ANGELES             CALIF 080124121A002A45FUU40MBN20XW45 000000
604CA019009A9110010698540194801LOS ANGELES             CALIF 080124121A004A22MWH24MWH20ST99 000000
604CA019009A9110010698540194801LOS ANGELES             CALIF 080124121A005B21MWH00UUU14UN47 000000
604CA019009A9110010698540194801LOS ANGELES             CALIF 080124121A006A19MWH33MWH12ST81A000000
604CA019009A9110010698540194801LOS ANGELES             CALIF 080124121A007F19MWH00UUU12UN47 00100024MWH
604CA019009A9110010698540194801LOS ANGELES             CALIF 080124121A008B18MUU00UUU30UN99 000000
604CA019009A9110010698540194801LOS ANGELES             CALIF 080124121A009B20MWH00UUU12UN47 000000
604CA019009A9110010698540194801LOS ANGELES             CALIF 080320121A010A26MWN40MWH12ST05 000000
604CA019009A9110010698540194801LOS ANGELES             CALIF 090411121A001B34MB 00UU 12UN46 000000
604CA019009A9110010698540194801LOS ANGELES             CALIF 090411121A002F16MW 00UU 12UN47 00100021MW
604CA019009A9110010698540194801LOS ANGELES             CALIF 090411121A003B35MW 00UU 12UN46 000000
604CA019009A9110010698540194801LOS ANGELES             CALIF 090329121A004B00MUU00UUU12UN99 000000
604CA019009A9110010698540194801LOS ANGELES             CALIF 090411121A005B52MB 00UU 12UN46 000000
604CA019009A9110010698540194801LOS ANGELES             CALIF 090411121A006B27MB 00UU 12UN46 000000
604CA019009A9110010698540194801LOS ANGELES             CALIF 090329121A008B21MWN00UUU12UN99 000000
604CA019009A9110010698540194801LOS ANGELES             CALIF 101230111A001B22MWH00UUU12UN99 000000
604CA019009A9110010698540194801LOS ANGELES             CALIF 101230111A002B19MWH00UUU12UN47 000000
604CA019009A9110010698540194801LOS ANGELES             CALIF 101230111A003F27MBN00UUU12UN47 00100033MBN
604CA019009A9110010698540194801LOS ANGELES             CALIF 101230111A004B34MBN00UUU30UN03 000000
604CA019009A9110010698540194801LOS ANGELES             CALIF 101230111A005B21MWH00UUU20UN99 000000
604CA019009A9110010698540194801LOS ANGELES             CALIF 101230111A006E51MWH16MWH20OK26 00100158FWH                                             15FWH20OK26
604CA019009A9110010698540194801LOS ANGELES             CALIF 110214121A001A24MWH24MWH20ST99 000000
604CA019009A9110010698540194801LOS ANGELES             CALIF 110214121A002B39MBN00UUU12UN47 000000
604CA019009A9110010698540194801LOS ANGELES             CALIF 110214121A003B25MBN00UUU12UN47 000000
604CA019009A9110010698540194801LOS ANGELES             CALIF 110214121A004B19MWH00UUU12UN47 000000
604CA019009A9110010698540194801LOS ANGELES             CALIF 110214121A005B31MBN00UUU13UN47 000000
